{
  "_format": "hh-sol-artifact-1",
  "contractName": "SpilmanChannel",
  "sourceName": "contracts/SpilmanChannel.sol",
  "abi": [
    {
      "inputs": [
        {
          "internalType": "address",
          "name": "_recipient",
          "type": "address"
        },
        {
          "internalType": "uint256",
          "name": "_duration",
          "type": "uint256"
        }
      ],
      "stateMutability": "payable",
      "type": "constructor"
    },
    {
      "inputs": [
        {
          "internalType": "uint256",
          "name": "alice_balance",
          "type": "uint256"
        },
        {
          "internalType": "uint256",
          "name": "bob_balance",
          "type": "uint256"
        },
        {
          "internalType": "bytes",
          "name": "signature",
          "type": "bytes"
        }
      ],
      "name": "closeChannel",
      "outputs": [],
      "stateMutability": "nonpayable",
      "type": "function"
    },
    {
      "inputs": [],
      "name": "expiration",
      "outputs": [
        {
          "internalType": "uint256",
          "name": "",
          "type": "uint256"
        }
      ],
      "stateMutability": "view",
      "type": "function"
    },
    {
      "inputs": [],
      "name": "fundChannel",
      "outputs": [],
      "stateMutability": "payable",
      "type": "function"
    },
    {
      "inputs": [],
      "name": "isClosed",
      "outputs": [
        {
          "internalType": "bool",
          "name": "",
          "type": "bool"
        }
      ],
      "stateMutability": "view",
      "type": "function"
    },
    {
      "inputs": [],
      "name": "isFundingComplete",
      "outputs": [
        {
          "internalType": "bool",
          "name": "",
          "type": "bool"
        }
      ],
      "stateMutability": "view",
      "type": "function"
    },
    {
      "inputs": [],
      "name": "recipient",
      "outputs": [
        {
          "internalType": "address",
          "name": "",
          "type": "address"
        }
      ],
      "stateMutability": "view",
      "type": "function"
    },
    {
      "inputs": [],
      "name": "refund",
      "outputs": [],
      "stateMutability": "nonpayable",
      "type": "function"
    },
    {
      "inputs": [],
      "name": "sender",
      "outputs": [
        {
          "internalType": "address",
          "name": "",
          "type": "address"
        }
      ],
      "stateMutability": "view",
      "type": "function"
    },
    {
      "inputs": [],
      "name": "totalAmount",
      "outputs": [
        {
          "internalType": "uint256",
          "name": "",
          "type": "uint256"
        }
      ],
      "stateMutability": "view",
      "type": "function"
    }
  ],
  "bytecode": "0x6080604052604051620017183803806200171883398181016040528101906200002991906200018d565b336000806101000a81548173ffffffffffffffffffffffffffffffffffffffff021916908373ffffffffffffffffffffffffffffffffffffffff16021790555081600160006101000a81548173ffffffffffffffffffffffffffffffffffffffff021916908373ffffffffffffffffffffffffffffffffffffffff1602179055508042620000b8919062000203565b600281905550346003819055506000600460006101000a81548160ff02191690831515021790555050506200023e565b600080fd5b600073ffffffffffffffffffffffffffffffffffffffff82169050919050565b60006200011a82620000ed565b9050919050565b6200012c816200010d565b81146200013857600080fd5b50565b6000815190506200014c8162000121565b92915050565b6000819050919050565b620001678162000152565b81146200017357600080fd5b50565b60008151905062000187816200015c565b92915050565b60008060408385031215620001a757620001a6620000e8565b5b6000620001b7858286016200013b565b9250506020620001ca8582860162000176565b9150509250929050565b7f4e487b7100000000000000000000000000000000000000000000000000000000600052601160045260246000fd5b6000620002108262000152565b91506200021d8362000152565b9250828201905080821115620002385762000237620001d4565b5b92915050565b6114ca806200024e6000396000f3fe6080604052600436106100865760003560e01c806366d003ac1161005957806366d003ac1461010257806367e404ce1461012d5780639b01d0c314610158578063c2b6b58c14610183578063eecbbb72146101ae57610086565b8063157f83ad1461008b5780631a39d8ef146100955780634665096d146100c0578063590e1ae3146100eb575b600080fd5b6100936101d7565b005b3480156100a157600080fd5b506100aa6102d9565b6040516100b79190610a64565b60405180910390f35b3480156100cc57600080fd5b506100d56102df565b6040516100e29190610a64565b60405180910390f35b3480156100f757600080fd5b506101006102e5565b005b34801561010e57600080fd5b506101176104f3565b6040516101249190610ac0565b60405180910390f35b34801561013957600080fd5b50610142610519565b60405161014f9190610ac0565b60405180910390f35b34801561016457600080fd5b5061016d61053d565b60405161017a9190610af6565b60405180910390f35b34801561018f57600080fd5b50610198610550565b6040516101a59190610af6565b60405180910390f35b3480156101ba57600080fd5b506101d560048036038101906101d09190610c97565b610563565b005b600460019054906101000a900460ff1615610227576040517f08c379a000000000000000000000000000000000000000000000000000000000815260040161021e90610d63565b60405180910390fd5b60008054906101000a900473ffffffffffffffffffffffffffffffffffffffff1673ffffffffffffffffffffffffffffffffffffffff163373ffffffffffffffffffffffffffffffffffffffff16146102b5576040517f08c379a00000000000000000000000000000000000000000000000000000000081526004016102ac90610df5565b60405180910390fd5b346003819055506001600460016101000a81548160ff021916908315150217905550565b60035481565b60025481565b600460009054906101000a900460ff1615610335576040517f08c379a000000000000000000000000000000000000000000000000000000000815260040161032c90610e61565b60405180910390fd5b60008054906101000a900473ffffffffffffffffffffffffffffffffffffffff1673ffffffffffffffffffffffffffffffffffffffff163373ffffffffffffffffffffffffffffffffffffffff16146103c3576040517f08c379a00000000000000000000000000000000000000000000000000000000081526004016103ba90610ecd565b60405180910390fd5b600254421015610408576040517f08c379a00000000000000000000000000000000000000000000000000000000081526004016103ff90610f39565b60405180910390fd5b6001600460006101000a81548160ff02191690831515021790555060008060009054906101000a900473ffffffffffffffffffffffffffffffffffffffff1673ffffffffffffffffffffffffffffffffffffffff164760405161046a90610f8a565b60006040518083038185875af1925050503d80600081146104a7576040519150601f19603f3d011682016040523d82523d6000602084013e6104ac565b606091505b50509050806104f0576040517f08c379a00000000000000000000000000000000000000000000000000000000081526004016104e790610feb565b60405180910390fd5b50565b600160009054906101000a900473ffffffffffffffffffffffffffffffffffffffff1681565b60008054906101000a900473ffffffffffffffffffffffffffffffffffffffff1681565b600460019054906101000a900460ff1681565b600460009054906101000a900460ff1681565b600460009054906101000a900460ff16156105b3576040517f08c379a00000000000000000000000000000000000000000000000000000000081526004016105aa90610e61565b60405180910390fd5b600160009054906101000a900473ffffffffffffffffffffffffffffffffffffffff1673ffffffffffffffffffffffffffffffffffffffff163373ffffffffffffffffffffffffffffffffffffffff1614610643576040517f08c379a000000000000000000000000000000000000000000000000000000000815260040161063a9061107d565b60405180910390fd5b600354828461065291906110cc565b1115610693576040517f08c379a000000000000000000000000000000000000000000000000000000000815260040161068a90611172565b60405180910390fd5b6106c1600160009054906101000a900473ffffffffffffffffffffffffffffffffffffffff168484846108b2565b610700576040517f08c379a00000000000000000000000000000000000000000000000000000000081526004016106f7906111de565b60405180910390fd5b6000600160009054906101000a900473ffffffffffffffffffffffffffffffffffffffff1673ffffffffffffffffffffffffffffffffffffffff168360405161074890610f8a565b60006040518083038185875af1925050503d8060008114610785576040519150601f19603f3d011682016040523d82523d6000602084013e61078a565b606091505b50509050806107ce576040517f08c379a00000000000000000000000000000000000000000000000000000000081526004016107c59061124a565b60405180910390fd5b600047905060008111156108ab5760008060009054906101000a900473ffffffffffffffffffffffffffffffffffffffff1673ffffffffffffffffffffffffffffffffffffffff168260405161082390610f8a565b60006040518083038185875af1925050503d8060008114610860576040519150601f19603f3d011682016040523d82523d6000602084013e610865565b606091505b50509050806108a9576040517f08c379a00000000000000000000000000000000000000000000000000000000081526004016108a090610feb565b60405180910390fd5b505b5050505050565b6000803085856040516020016108ca939291906112d3565b60405160208183030381529060405280519060200120905060006108ed82610933565b90508673ffffffffffffffffffffffffffffffffffffffff166109108286610963565b73ffffffffffffffffffffffffffffffffffffffff161492505050949350505050565b6000816040516020016109469190611392565b604051602081830303815290604052805190602001209050919050565b600080600080610972856109d2565b9250925092506001868484846040516000815260200160405260405161099b94939291906113e3565b6020604051602081039080840390855afa1580156109bd573d6000803e3d6000fd5b50505060206040510351935050505092915050565b60008060006041845114610a1b576040517f08c379a0000000000000000000000000000000000000000000000000000000008152600401610a1290611474565b60405180910390fd5b60008060006020870151925060408701519150606087015160001a90508083839550955095505050509193909250565b6000819050919050565b610a5e81610a4b565b82525050565b6000602082019050610a796000830184610a55565b92915050565b600073ffffffffffffffffffffffffffffffffffffffff82169050919050565b6000610aaa82610a7f565b9050919050565b610aba81610a9f565b82525050565b6000602082019050610ad56000830184610ab1565b92915050565b60008115159050919050565b610af081610adb565b82525050565b6000602082019050610b0b6000830184610ae7565b92915050565b6000604051905090565b600080fd5b600080fd5b610b2e81610a4b565b8114610b3957600080fd5b50565b600081359050610b4b81610b25565b92915050565b600080fd5b600080fd5b6000601f19601f8301169050919050565b7f4e487b7100000000000000000000000000000000000000000000000000000000600052604160045260246000fd5b610ba482610b5b565b810181811067ffffffffffffffff82111715610bc357610bc2610b6c565b5b80604052505050565b6000610bd6610b11565b9050610be28282610b9b565b919050565b600067ffffffffffffffff821115610c0257610c01610b6c565b5b610c0b82610b5b565b9050602081019050919050565b82818337600083830152505050565b6000610c3a610c3584610be7565b610bcc565b905082815260208101848484011115610c5657610c55610b56565b5b610c61848285610c18565b509392505050565b600082601f830112610c7e57610c7d610b51565b5b8135610c8e848260208601610c27565b91505092915050565b600080600060608486031215610cb057610caf610b1b565b5b6000610cbe86828701610b3c565b9350506020610ccf86828701610b3c565b925050604084013567ffffffffffffffff811115610cf057610cef610b20565b5b610cfc86828701610c69565b9150509250925092565b600082825260208201905092915050565b7f4368616e6e656c20616c72656164792066756e64656400000000000000000000600082015250565b6000610d4d601683610d06565b9150610d5882610d17565b602082019050919050565b60006020820190508181036000830152610d7c81610d40565b9050919050565b7f4f6e6c7920416c696365206f7220426f622063616e2066756e6420746865206360008201527f68616e6e656c0000000000000000000000000000000000000000000000000000602082015250565b6000610ddf602683610d06565b9150610dea82610d83565b604082019050919050565b60006020820190508181036000830152610e0e81610dd2565b9050919050565b7f4368616e6e656c20697320616c726561647920636c6f7365642e000000000000600082015250565b6000610e4b601a83610d06565b9150610e5682610e15565b602082019050919050565b60006020820190508181036000830152610e7a81610e3e565b9050919050565b7f4f6e6c792073656e6465722063616e20726566756e642e000000000000000000600082015250565b6000610eb7601783610d06565b9150610ec282610e81565b602082019050919050565b60006020820190508181036000830152610ee681610eaa565b9050919050565b7f4368616e6e656c20686173206e6f742065787069726564207965742e00000000600082015250565b6000610f23601c83610d06565b9150610f2e82610eed565b602082019050919050565b60006020820190508181036000830152610f5281610f16565b9050919050565b600081905092915050565b50565b6000610f74600083610f59565b9150610f7f82610f64565b600082019050919050565b6000610f9582610f67565b9150819050919050565b7f526566756e6420746f2073656e646572206661696c65642e0000000000000000600082015250565b6000610fd5601883610d06565b9150610fe082610f9f565b602082019050919050565b6000602082019050818103600083015261100481610fc8565b9050919050565b7f4f6e6c7920726563697069656e742063616e20636c6f7365207468652063686160008201527f6e6e656c2e000000000000000000000000000000000000000000000000000000602082015250565b6000611067602583610d06565b91506110728261100b565b604082019050919050565b600060208201905081810360008301526110968161105a565b9050919050565b7f4e487b7100000000000000000000000000000000000000000000000000000000600052601160045260246000fd5b60006110d782610a4b565b91506110e283610a4b565b92508282019050808211156110fa576110f961109d565b5b92915050565b7f496e76616c696420616d6f756e743a20657863656564732066756e646564206160008201527f6d6f756e742e0000000000000000000000000000000000000000000000000000602082015250565b600061115c602683610d06565b915061116782611100565b604082019050919050565b6000602082019050818103600083015261118b8161114f565b9050919050565b7f496e76616c6964207369676e61747572652e0000000000000000000000000000600082015250565b60006111c8601283610d06565b91506111d382611192565b602082019050919050565b600060208201905081810360008301526111f7816111bb565b9050919050565b7f5061796d656e74207472616e73666572206661696c65642e0000000000000000600082015250565b6000611234601883610d06565b915061123f826111fe565b602082019050919050565b6000602082019050818103600083015261126381611227565b9050919050565b60008160601b9050919050565b60006112828261126a565b9050919050565b600061129482611277565b9050919050565b6112ac6112a782610a9f565b611289565b82525050565b6000819050919050565b6112cd6112c882610a4b565b6112b2565b82525050565b60006112df828661129b565b6014820191506112ef82856112bc565b6020820191506112ff82846112bc565b602082019150819050949350505050565b600081905092915050565b7f19457468657265756d205369676e6564204d6573736167653a0a333200000000600082015250565b6000611351601c83611310565b915061135c8261131b565b601c82019050919050565b6000819050919050565b6000819050919050565b61138c61138782611367565b611371565b82525050565b600061139d82611344565b91506113a9828461137b565b60208201915081905092915050565b6113c181611367565b82525050565b600060ff82169050919050565b6113dd816113c7565b82525050565b60006080820190506113f860008301876113b8565b61140560208301866113d4565b61141260408301856113b8565b61141f60608301846113b8565b95945050505050565b7f496e76616c6964207369676e6174757265206c656e6774682e00000000000000600082015250565b600061145e601983610d06565b915061146982611428565b602082019050919050565b6000602082019050818103600083015261148d81611451565b905091905056fea264697066735822122094a8008848574b34176a4a0580e731d39f7e821b3a230e007d747f11b69bde3564736f6c63430008120033",
  "linkReferences": {},
  "deployedLinkReferences": {}
}