{
  "_format": "hh-sol-artifact-1",
  "contractName": "LightningChannel",
  "sourceName": "contracts/LightningChannel.sol",
  "abi": [
    {
      "inputs": [
        {
          "internalType": "address",
          "name": "_bob",
          "type": "address"
        },
        {
          "internalType": "uint256",
          "name": "_fundingAmountAlice",
          "type": "uint256"
        },
        {
          "internalType": "uint256",
          "name": "_fundingAmountBob",
          "type": "uint256"
        }
      ],
      "stateMutability": "payable",
      "type": "constructor"
    },
    {
      "anonymous": false,
      "inputs": [
        {
          "indexed": false,
          "internalType": "address",
          "name": "recipient",
          "type": "address"
        },
        {
          "indexed": false,
          "internalType": "uint256",
          "name": "amount",
          "type": "uint256"
        }
      ],
      "name": "BreachRemedyExecuted",
      "type": "event"
    },
    {
      "anonymous": false,
      "inputs": [
        {
          "indexed": false,
          "internalType": "address",
          "name": "recipient",
          "type": "address"
        },
        {
          "indexed": false,
          "internalType": "uint256",
          "name": "amount",
          "type": "uint256"
        }
      ],
      "name": "ChannelClosed",
      "type": "event"
    },
    {
      "anonymous": false,
      "inputs": [
        {
          "indexed": false,
          "internalType": "address",
          "name": "recipient",
          "type": "address"
        },
        {
          "indexed": false,
          "internalType": "uint256",
          "name": "alice_balance",
          "type": "uint256"
        },
        {
          "indexed": false,
          "internalType": "uint256",
          "name": "bob_balance",
          "type": "uint256"
        }
      ],
      "name": "ChannelSettled",
      "type": "event"
    },
    {
      "anonymous": false,
      "inputs": [
        {
          "indexed": false,
          "internalType": "address",
          "name": "recipient",
          "type": "address"
        },
        {
          "indexed": false,
          "internalType": "uint256",
          "name": "amount",
          "type": "uint256"
        }
      ],
      "name": "RDTXExecuted",
      "type": "event"
    },
    {
      "inputs": [
        {
          "internalType": "uint256",
          "name": "_newBalanceA",
          "type": "uint256"
        },
        {
          "internalType": "uint256",
          "name": "_newBalanceB",
          "type": "uint256"
        },
        {
          "internalType": "bytes",
          "name": "_signature",
          "type": "bytes"
        }
      ],
      "name": "CooperateTX",
      "outputs": [],
      "stateMutability": "nonpayable",
      "type": "function"
    },
    {
      "inputs": [],
      "name": "alice",
      "outputs": [
        {
          "internalType": "address",
          "name": "",
          "type": "address"
        }
      ],
      "stateMutability": "view",
      "type": "function"
    },
    {
      "inputs": [],
      "name": "aliceBalance",
      "outputs": [
        {
          "internalType": "uint256",
          "name": "",
          "type": "uint256"
        }
      ],
      "stateMutability": "view",
      "type": "function"
    },
    {
      "inputs": [],
      "name": "bob",
      "outputs": [
        {
          "internalType": "address",
          "name": "",
          "type": "address"
        }
      ],
      "stateMutability": "view",
      "type": "function"
    },
    {
      "inputs": [],
      "name": "bobBalance",
      "outputs": [
        {
          "internalType": "uint256",
          "name": "",
          "type": "uint256"
        }
      ],
      "stateMutability": "view",
      "type": "function"
    },
    {
      "inputs": [
        {
          "internalType": "uint256",
          "name": "commitmentId",
          "type": "uint256"
        },
        {
          "internalType": "address",
          "name": "DTXRecipient",
          "type": "address"
        },
        {
          "internalType": "uint256",
          "name": "DTXAmount",
          "type": "uint256"
        },
        {
          "internalType": "address",
          "name": "RDTXRecipient",
          "type": "address"
        },
        {
          "internalType": "uint256",
          "name": "RDTXAmount",
          "type": "uint256"
        },
        {
          "internalType": "uint256",
          "name": "timelock",
          "type": "uint256"
        },
        {
          "internalType": "address",
          "name": "BRTXRecipient",
          "type": "address"
        },
        {
          "internalType": "uint256",
          "name": "BRTXAmount",
          "type": "uint256"
        },
        {
          "internalType": "bytes",
          "name": "signature",
          "type": "bytes"
        }
      ],
      "name": "broadcastCTX",
      "outputs": [],
      "stateMutability": "nonpayable",
      "type": "function"
    },
    {
      "inputs": [],
      "name": "broadcastCommitment",
      "outputs": [
        {
          "internalType": "uint256",
          "name": "id",
          "type": "uint256"
        },
        {
          "internalType": "address",
          "name": "DTXRecipient",
          "type": "address"
        },
        {
          "internalType": "uint256",
          "name": "DTXAmount",
          "type": "uint256"
        },
        {
          "internalType": "address",
          "name": "RDTXRecipient",
          "type": "address"
        },
        {
          "internalType": "uint256",
          "name": "RDTXAmount",
          "type": "uint256"
        },
        {
          "internalType": "uint256",
          "name": "timelock",
          "type": "uint256"
        },
        {
          "internalType": "address",
          "name": "BRTXRecipient",
          "type": "address"
        },
        {
          "internalType": "uint256",
          "name": "BRTXAmount",
          "type": "uint256"
        }
      ],
      "stateMutability": "view",
      "type": "function"
    },
    {
      "inputs": [
        {
          "internalType": "address",
          "name": "RDTXRecipient",
          "type": "address"
        },
        {
          "internalType": "uint256",
          "name": "RDTXAmount",
          "type": "uint256"
        },
        {
          "internalType": "bytes",
          "name": "signature",
          "type": "bytes"
        }
      ],
      "name": "broadcastRDTX",
      "outputs": [],
      "stateMutability": "nonpayable",
      "type": "function"
    },
    {
      "inputs": [],
      "name": "fundByBob",
      "outputs": [],
      "stateMutability": "payable",
      "type": "function"
    },
    {
      "inputs": [],
      "name": "fundingAmountAlice",
      "outputs": [
        {
          "internalType": "uint256",
          "name": "",
          "type": "uint256"
        }
      ],
      "stateMutability": "view",
      "type": "function"
    },
    {
      "inputs": [],
      "name": "fundingAmountBob",
      "outputs": [
        {
          "internalType": "uint256",
          "name": "",
          "type": "uint256"
        }
      ],
      "stateMutability": "view",
      "type": "function"
    },
    {
      "inputs": [],
      "name": "getChannelBalance",
      "outputs": [
        {
          "internalType": "uint256",
          "name": "",
          "type": "uint256"
        },
        {
          "internalType": "uint256",
          "name": "",
          "type": "uint256"
        }
      ],
      "stateMutability": "view",
      "type": "function"
    },
    {
      "inputs": [],
      "name": "getLastCommitmentID",
      "outputs": [
        {
          "internalType": "uint256",
          "name": "",
          "type": "uint256"
        }
      ],
      "stateMutability": "view",
      "type": "function"
    },
    {
      "inputs": [],
      "name": "isChannelOpen",
      "outputs": [
        {
          "internalType": "bool",
          "name": "",
          "type": "bool"
        }
      ],
      "stateMutability": "view",
      "type": "function"
    },
    {
      "inputs": [],
      "name": "isFundingComplete",
      "outputs": [
        {
          "internalType": "bool",
          "name": "",
          "type": "bool"
        }
      ],
      "stateMutability": "view",
      "type": "function"
    },
    {
      "inputs": [],
      "name": "latestCommitmentId",
      "outputs": [
        {
          "internalType": "uint256",
          "name": "",
          "type": "uint256"
        }
      ],
      "stateMutability": "view",
      "type": "function"
    },
    {
      "inputs": [
        {
          "internalType": "uint256",
          "name": "_aliceDeposit",
          "type": "uint256"
        },
        {
          "internalType": "uint256",
          "name": "_bobDeposit",
          "type": "uint256"
        }
      ],
      "name": "signFundingTransaction",
      "outputs": [],
      "stateMutability": "nonpayable",
      "type": "function"
    }
  ],
  "bytecode": "0x6080604052604051612a7c380380612a7c833981810160405281019061002591906101cd565b813414610067576040517f08c379a000000000000000000000000000000000000000000000000000000000815260040161005e906102a3565b60405180910390fd5b336000806101000a81548173ffffffffffffffffffffffffffffffffffffffff021916908373ffffffffffffffffffffffffffffffffffffffff16021790555082600160006101000a81548173ffffffffffffffffffffffffffffffffffffffff021916908373ffffffffffffffffffffffffffffffffffffffff16021790555081600281905550806003819055506000600460006101000a81548160ff0219169083151502179055506000600860006101000a81548160ff0219169083151502179055505050506102c3565b600080fd5b600073ffffffffffffffffffffffffffffffffffffffff82169050919050565b600061016482610139565b9050919050565b61017481610159565b811461017f57600080fd5b50565b6000815190506101918161016b565b92915050565b6000819050919050565b6101aa81610197565b81146101b557600080fd5b50565b6000815190506101c7816101a1565b92915050565b6000806000606084860312156101e6576101e5610134565b5b60006101f486828701610182565b9350506020610205868287016101b8565b9250506040610216868287016101b8565b9150509250925092565b600082825260208201905092915050565b7f496e636f72726563742066756e64696e6720616d6f756e7420666f7220416c6960008201527f6365000000000000000000000000000000000000000000000000000000000000602082015250565b600061028d602283610220565b915061029882610231565b604082019050919050565b600060208201905081810360008301526102bc81610280565b9050919050565b6127aa806102d26000396000f3fe6080604052600436106100fe5760003560e01c80638a3bc18111610095578063c09cec7711610064578063c09cec77146102ea578063c4e702e514610315578063cc8e508514610340578063d5407d9914610369578063fb47e3a214610392576100fe565b80638a3bc181146102395780638ba4848a1461026b57806390179180146102965780639b01d0c3146102bf576100fe565b80634ac25224116100d15780634ac25224146101ad5780634e19ed24146101d85780635fdfe14b146102045780637145ce221461022f576100fe565b8063075c50eb146101035780632000fc961461012e57806328eacf9e14610157578063395d20d114610182575b600080fd5b34801561010f57600080fd5b506101186103bd565b604051610125919061180b565b60405180910390f35b34801561013a57600080fd5b5061015560048036038101906101509190611a0a565b6103c3565b005b34801561016357600080fd5b5061016c61067a565b604051610179919061180b565b60405180910390f35b34801561018e57600080fd5b50610197610680565b6040516101a4919061180b565b60405180910390f35b3480156101b957600080fd5b506101c261068a565b6040516101cf9190611a94565b60405180910390f35b3480156101e457600080fd5b506101ed61069d565b6040516101fb929190611aaf565b60405180910390f35b34801561021057600080fd5b506102196106ae565b604051610226919061180b565b60405180910390f35b6102376106b4565b005b34801561024557600080fd5b5061024e6107b7565b604051610262989796959493929190611ae7565b60405180910390f35b34801561027757600080fd5b5061028061084d565b60405161028d919061180b565b60405180910390f35b3480156102a257600080fd5b506102bd60048036038101906102b89190611b65565b610853565b005b3480156102cb57600080fd5b506102d4610b5c565b6040516102e19190611a94565b60405180910390f35b3480156102f657600080fd5b506102ff610b6f565b60405161030c9190611c4b565b60405180910390f35b34801561032157600080fd5b5061032a610b95565b604051610337919061180b565b60405180910390f35b34801561034c57600080fd5b5061036760048036038101906103629190611c66565b610b9b565b005b34801561037557600080fd5b50610390600480360381019061038b9190611ca6565b610c6b565b005b34801561039e57600080fd5b506103a7610f99565b6040516103b49190611c4b565b60405180910390f35b60075481565b8273ffffffffffffffffffffffffffffffffffffffff16600960030160009054906101000a900473ffffffffffffffffffffffffffffffffffffffff1673ffffffffffffffffffffffffffffffffffffffff1614610456576040517f08c379a000000000000000000000000000000000000000000000000000000000815260040161044d90611d72565b60405180910390fd5b816009600401541461049d576040517f08c379a000000000000000000000000000000000000000000000000000000000815260040161049490611dde565b60405180910390fd5b6009600501544210156104e5576040517f08c379a00000000000000000000000000000000000000000000000000000000081526004016104dc90611e4a565b60405180910390fd5b60006009600401541161052d576040517f08c379a000000000000000000000000000000000000000000000000000000000815260040161052490611eb6565b60405180910390fd5b61055860008054906101000a900473ffffffffffffffffffffffffffffffffffffffff168383610fbd565b610597576040517f08c379a000000000000000000000000000000000000000000000000000000000815260040161058e90611f22565b60405180910390fd5b816005819055506000600960030160009054906101000a900473ffffffffffffffffffffffffffffffffffffffff1673ffffffffffffffffffffffffffffffffffffffff166009600401546040516105ee90611f73565b60006040518083038185875af1925050503d806000811461062b576040519150601f19603f3d011682016040523d82523d6000602084013e610630565b606091505b5050905080610674576040517f08c379a000000000000000000000000000000000000000000000000000000000815260040161066b90611fd4565b60405180910390fd5b50505050565b60025481565b6000600754905090565b600460009054906101000a900460ff1681565b600080600554600654915091509091565b60035481565b600160009054906101000a900473ffffffffffffffffffffffffffffffffffffffff1673ffffffffffffffffffffffffffffffffffffffff163373ffffffffffffffffffffffffffffffffffffffff1614610744576040517f08c379a000000000000000000000000000000000000000000000000000000000815260040161073b90612040565b60405180910390fd5b6003543414610788576040517f08c379a000000000000000000000000000000000000000000000000000000000815260040161077f906120ac565b60405180910390fd5b6002546005819055506003546006819055506001600460006101000a81548160ff021916908315150217905550565b60098060000154908060010160009054906101000a900473ffffffffffffffffffffffffffffffffffffffff16908060020154908060030160009054906101000a900473ffffffffffffffffffffffffffffffffffffffff16908060040154908060050154908060060160009054906101000a900473ffffffffffffffffffffffffffffffffffffffff16908060070154905088565b60055481565b60008054906101000a900473ffffffffffffffffffffffffffffffffffffffff1673ffffffffffffffffffffffffffffffffffffffff163373ffffffffffffffffffffffffffffffffffffffff1614806108fa5750600160009054906101000a900473ffffffffffffffffffffffffffffffffffffffff1673ffffffffffffffffffffffffffffffffffffffff163373ffffffffffffffffffffffffffffffffffffffff16145b610939576040517f08c379a00000000000000000000000000000000000000000000000000000000081526004016109309061213e565b60405180910390fd5b61096560008054906101000a900473ffffffffffffffffffffffffffffffffffffffff1686898461107c565b6109a4576040517f08c379a000000000000000000000000000000000000000000000000000000000815260040161099b90611f22565b60405180910390fd5b6040518061010001604052808a81526020018973ffffffffffffffffffffffffffffffffffffffff1681526020018881526020018773ffffffffffffffffffffffffffffffffffffffff1681526020018681526020018581526020018473ffffffffffffffffffffffffffffffffffffffff1681526020018381525060096000820151816000015560208201518160010160006101000a81548173ffffffffffffffffffffffffffffffffffffffff021916908373ffffffffffffffffffffffffffffffffffffffff1602179055506040820151816002015560608201518160030160006101000a81548173ffffffffffffffffffffffffffffffffffffffff021916908373ffffffffffffffffffffffffffffffffffffffff1602179055506080820151816004015560a0820151816005015560c08201518160060160006101000a81548173ffffffffffffffffffffffffffffffffffffffff021916908373ffffffffffffffffffffffffffffffffffffffff16021790555060e082015181600701559050506007548903610b4457610b3f888861113e565b610b51565b610b5088888585611383565b5b505050505050505050565b600860009054906101000a900460ff1681565b600160009054906101000a900473ffffffffffffffffffffffffffffffffffffffff1681565b60065481565b6000600254118015610baf57506000600354115b610bee576040517f08c379a0000000000000000000000000000000000000000000000000000000008152600401610be5906121aa565b60405180910390fd5b600860009054906101000a900460ff1615610c3e576040517f08c379a0000000000000000000000000000000000000000000000000000000008152600401610c3590612216565b60405180910390fd5b81600581905550806006819055506001600860006101000a81548160ff0219169083151502179055505050565b60008054906101000a900473ffffffffffffffffffffffffffffffffffffffff1673ffffffffffffffffffffffffffffffffffffffff163373ffffffffffffffffffffffffffffffffffffffff161480610d125750600160009054906101000a900473ffffffffffffffffffffffffffffffffffffffff1673ffffffffffffffffffffffffffffffffffffffff163373ffffffffffffffffffffffffffffffffffffffff16145b610d51576040517f08c379a0000000000000000000000000000000000000000000000000000000008152600401610d4890612282565b60405180910390fd5b610d5d3384848461107c565b610d9c576040517f08c379a0000000000000000000000000000000000000000000000000000000008152600401610d9390611f22565b60405180910390fd5b7f49343c15952acf412a95898c9dbe491501354477a87234a2979a54c35fd6fd3b60008054906101000a900473ffffffffffffffffffffffffffffffffffffffff168484604051610def939291906122a2565b60405180910390a160008060009054906101000a900473ffffffffffffffffffffffffffffffffffffffff1673ffffffffffffffffffffffffffffffffffffffff1684604051610e3e90611f73565b60006040518083038185875af1925050503d8060008114610e7b576040519150601f19603f3d011682016040523d82523d6000602084013e610e80565b606091505b5050905080610ec4576040517f08c379a0000000000000000000000000000000000000000000000000000000008152600401610ebb90612325565b60405180910390fd5b6000600160009054906101000a900473ffffffffffffffffffffffffffffffffffffffff1673ffffffffffffffffffffffffffffffffffffffff1684604051610f0c90611f73565b60006040518083038185875af1925050503d8060008114610f49576040519150601f19603f3d011682016040523d82523d6000602084013e610f4e565b606091505b5050905080610f92576040517f08c379a0000000000000000000000000000000000000000000000000000000008152600401610f8990612391565b60405180910390fd5b5050505050565b60008054906101000a900473ffffffffffffffffffffffffffffffffffffffff1681565b6000803084604051602001610fd392919061241a565b6040516020818303038152906040528051906020012090506000610ff6826116da565b90508573ffffffffffffffffffffffffffffffffffffffff16611019828661170a565b73ffffffffffffffffffffffffffffffffffffffff161461106f576040517f08c379a000000000000000000000000000000000000000000000000000000000815260040161106690612492565b60405180910390fd5b6001925050509392505050565b600080308585604051602001611094939291906124b2565b60405160208183030381529060405280519060200120905060006110b7826116da565b90508673ffffffffffffffffffffffffffffffffffffffff166110da828661170a565b73ffffffffffffffffffffffffffffffffffffffff1614611130576040517f08c379a000000000000000000000000000000000000000000000000000000000815260040161112790612492565b60405180910390fd5b600192505050949350505050565b8173ffffffffffffffffffffffffffffffffffffffff16600960010160009054906101000a900473ffffffffffffffffffffffffffffffffffffffff1673ffffffffffffffffffffffffffffffffffffffff16146111d1576040517f08c379a00000000000000000000000000000000000000000000000000000000081526004016111c890611d72565b60405180910390fd5b8060096002015414611218576040517f08c379a000000000000000000000000000000000000000000000000000000000815260040161120f90611dde565b60405180910390fd5b6000600960010160009054906101000a900473ffffffffffffffffffffffffffffffffffffffff1673ffffffffffffffffffffffffffffffffffffffff1660096002015460405161126890611f73565b60006040518083038185875af1925050503d80600081146112a5576040519150601f19603f3d011682016040523d82523d6000602084013e6112aa565b606091505b50509050806112ee576040517f08c379a00000000000000000000000000000000000000000000000000000000081526004016112e590611fd4565b60405180910390fd5b600960050154421015611336576040517f08c379a000000000000000000000000000000000000000000000000000000000815260040161132d90611e4a565b60405180910390fd5b60006009600401541161137e576040517f08c379a000000000000000000000000000000000000000000000000000000000815260040161137590611eb6565b60405180910390fd5b505050565b8373ffffffffffffffffffffffffffffffffffffffff16600960010160009054906101000a900473ffffffffffffffffffffffffffffffffffffffff1673ffffffffffffffffffffffffffffffffffffffff1614611416576040517f08c379a000000000000000000000000000000000000000000000000000000000815260040161140d90611d72565b60405180910390fd5b826009600201541461145d576040517f08c379a000000000000000000000000000000000000000000000000000000000815260040161145490611dde565b60405180910390fd5b8173ffffffffffffffffffffffffffffffffffffffff16600960060160009054906101000a900473ffffffffffffffffffffffffffffffffffffffff1673ffffffffffffffffffffffffffffffffffffffff16146114f0576040517f08c379a00000000000000000000000000000000000000000000000000000000081526004016114e79061253b565b60405180910390fd5b8060096007015414611537576040517f08c379a000000000000000000000000000000000000000000000000000000000815260040161152e906125a7565b60405180910390fd5b6000600960060160009054906101000a900473ffffffffffffffffffffffffffffffffffffffff1673ffffffffffffffffffffffffffffffffffffffff1660096007015460405161158790611f73565b60006040518083038185875af1925050503d80600081146115c4576040519150601f19603f3d011682016040523d82523d6000602084013e6115c9565b606091505b505090508061160d576040517f08c379a000000000000000000000000000000000000000000000000000000000815260040161160490612325565b60405180910390fd5b7f770342ee36990141b5b1f4b3b41a184d7968647ac7f0dbfd2d86d566c468027d600960010160009054906101000a900473ffffffffffffffffffffffffffffffffffffffff166009600201546040516116689291906125c7565b60405180910390a17f430db20f806309db8838523c048b342bd6766b9ff35988bf36dc6031e5ce267c600960060160009054906101000a900473ffffffffffffffffffffffffffffffffffffffff166009600701546040516116cb9291906125c7565b60405180910390a15050505050565b6000816040516020016116ed9190612672565b604051602081830303815290604052805190602001209050919050565b60008060008061171985611779565b9250925092506001868484846040516000815260200160405260405161174294939291906126c3565b6020604051602081039080840390855afa158015611764573d6000803e3d6000fd5b50505060206040510351935050505092915050565b600080600060418451146117c2576040517f08c379a00000000000000000000000000000000000000000000000000000000081526004016117b990612754565b60405180910390fd5b60008060006020870151925060408701519150606087015160001a90508083839550955095505050509193909250565b6000819050919050565b611805816117f2565b82525050565b600060208201905061182060008301846117fc565b92915050565b6000604051905090565b600080fd5b600080fd5b600073ffffffffffffffffffffffffffffffffffffffff82169050919050565b60006118658261183a565b9050919050565b6118758161185a565b811461188057600080fd5b50565b6000813590506118928161186c565b92915050565b6118a1816117f2565b81146118ac57600080fd5b50565b6000813590506118be81611898565b92915050565b600080fd5b600080fd5b6000601f19601f8301169050919050565b7f4e487b7100000000000000000000000000000000000000000000000000000000600052604160045260246000fd5b611917826118ce565b810181811067ffffffffffffffff82111715611936576119356118df565b5b80604052505050565b6000611949611826565b9050611955828261190e565b919050565b600067ffffffffffffffff821115611975576119746118df565b5b61197e826118ce565b9050602081019050919050565b82818337600083830152505050565b60006119ad6119a88461195a565b61193f565b9050828152602081018484840111156119c9576119c86118c9565b5b6119d484828561198b565b509392505050565b600082601f8301126119f1576119f06118c4565b5b8135611a0184826020860161199a565b91505092915050565b600080600060608486031215611a2357611a22611830565b5b6000611a3186828701611883565b9350506020611a42868287016118af565b925050604084013567ffffffffffffffff811115611a6357611a62611835565b5b611a6f868287016119dc565b9150509250925092565b60008115159050919050565b611a8e81611a79565b82525050565b6000602082019050611aa96000830184611a85565b92915050565b6000604082019050611ac460008301856117fc565b611ad160208301846117fc565b9392505050565b611ae18161185a565b82525050565b600061010082019050611afd600083018b6117fc565b611b0a602083018a611ad8565b611b1760408301896117fc565b611b246060830188611ad8565b611b3160808301876117fc565b611b3e60a08301866117fc565b611b4b60c0830185611ad8565b611b5860e08301846117fc565b9998505050505050505050565b60008060008060008060008060006101208a8c031215611b8857611b87611830565b5b6000611b968c828d016118af565b9950506020611ba78c828d01611883565b9850506040611bb88c828d016118af565b9750506060611bc98c828d01611883565b9650506080611bda8c828d016118af565b95505060a0611beb8c828d016118af565b94505060c0611bfc8c828d01611883565b93505060e0611c0d8c828d016118af565b9250506101008a013567ffffffffffffffff811115611c2f57611c2e611835565b5b611c3b8c828d016119dc565b9150509295985092959850929598565b6000602082019050611c606000830184611ad8565b92915050565b60008060408385031215611c7d57611c7c611830565b5b6000611c8b858286016118af565b9250506020611c9c858286016118af565b9150509250929050565b600080600060608486031215611cbf57611cbe611830565b5b6000611ccd868287016118af565b9350506020611cde868287016118af565b925050604084013567ffffffffffffffff811115611cff57611cfe611835565b5b611d0b868287016119dc565b9150509250925092565b600082825260208201905092915050565b7f526563697069656e74206d69736d617463680000000000000000000000000000600082015250565b6000611d5c601283611d15565b9150611d6782611d26565b602082019050919050565b60006020820190508181036000830152611d8b81611d4f565b9050919050565b7f416d6f756e74206d69736d617463680000000000000000000000000000000000600082015250565b6000611dc8600f83611d15565b9150611dd382611d92565b602082019050919050565b60006020820190508181036000830152611df781611dbb565b9050919050565b7f54696d656c6f636b206e6f742065787069726564000000000000000000000000600082015250565b6000611e34601483611d15565b9150611e3f82611dfe565b602082019050919050565b60006020820190508181036000830152611e6381611e27565b9050919050565b7f5244545820616d6f756e74206973207a65726f00000000000000000000000000600082015250565b6000611ea0601383611d15565b9150611eab82611e6a565b602082019050919050565b60006020820190508181036000830152611ecf81611e93565b9050919050565b7f496e76616c6964207369676e6174757265000000000000000000000000000000600082015250565b6000611f0c601183611d15565b9150611f1782611ed6565b602082019050919050565b60006020820190508181036000830152611f3b81611eff565b9050919050565b600081905092915050565b50565b6000611f5d600083611f42565b9150611f6882611f4d565b600082019050919050565b6000611f7e82611f50565b9150819050919050565b7f5061796d656e74206661696c65642e0000000000000000000000000000000000600082015250565b6000611fbe600f83611d15565b9150611fc982611f88565b602082019050919050565b60006020820190508181036000830152611fed81611fb1565b9050919050565b7f4f6e6c7920426f622063616e2066756e64207468697300000000000000000000600082015250565b600061202a601683611d15565b915061203582611ff4565b602082019050919050565b600060208201905081810360008301526120598161201d565b9050919050565b7f496e636f72726563742066756e64696e6720616d6f756e7420666f7220426f62600082015250565b6000612096602083611d15565b91506120a182612060565b602082019050919050565b600060208201905081810360008301526120c581612089565b9050919050565b7f4f6e6c79206368616e6e656c207061727469636970616e74732063616e20627260008201527f6f61646361737400000000000000000000000000000000000000000000000000602082015250565b6000612128602783611d15565b9150612133826120cc565b604082019050919050565b600060208201905081810360008301526121578161211b565b9050919050565b7f426f74682070617274696573206d757374206465706f7369742066756e64732e600082015250565b6000612194602083611d15565b915061219f8261215e565b602082019050919050565b600060208201905081810360008301526121c381612187565b9050919050565b7f46756e64696e6720697320616c726561647920636f6d706c6574652e00000000600082015250565b6000612200601c83611d15565b915061220b826121ca565b602082019050919050565b6000602082019050818103600083015261222f816121f3565b9050919050565b7f4f6e6c7920706172746965732063616e20757064617465207374617465000000600082015250565b600061226c601d83611d15565b915061227782612236565b602082019050919050565b6000602082019050818103600083015261229b8161225f565b9050919050565b60006060820190506122b76000830186611ad8565b6122c460208301856117fc565b6122d160408301846117fc565b949350505050565b7f5472616e7366657220746f20416c696365206661696c65640000000000000000600082015250565b600061230f601883611d15565b915061231a826122d9565b602082019050919050565b6000602082019050818103600083015261233e81612302565b9050919050565b7f5472616e7366657220746f20426f62206661696c656400000000000000000000600082015250565b600061237b601683611d15565b915061238682612345565b602082019050919050565b600060208201905081810360008301526123aa8161236e565b9050919050565b60008160601b9050919050565b60006123c9826123b1565b9050919050565b60006123db826123be565b9050919050565b6123f36123ee8261185a565b6123d0565b82525050565b6000819050919050565b61241461240f826117f2565b6123f9565b82525050565b600061242682856123e2565b6014820191506124368284612403565b6020820191508190509392505050565b7f496e76616c6964207369676e617475726520696e205f76657269667900000000600082015250565b600061247c601c83611d15565b915061248782612446565b602082019050919050565b600060208201905081810360008301526124ab8161246f565b9050919050565b60006124be82866123e2565b6014820191506124ce8285612403565b6020820191506124de8284612403565b602082019150819050949350505050565b7f4252545820526563697069656e74206d69736d61746368000000000000000000600082015250565b6000612525601783611d15565b9150612530826124ef565b602082019050919050565b6000602082019050818103600083015261255481612518565b9050919050565b7f4252545820416d6f756e74206d69736d61746368000000000000000000000000600082015250565b6000612591601483611d15565b915061259c8261255b565b602082019050919050565b600060208201905081810360008301526125c081612584565b9050919050565b60006040820190506125dc6000830185611ad8565b6125e960208301846117fc565b9392505050565b600081905092915050565b7f19457468657265756d205369676e6564204d6573736167653a0a333200000000600082015250565b6000612631601c836125f0565b915061263c826125fb565b601c82019050919050565b6000819050919050565b6000819050919050565b61266c61266782612647565b612651565b82525050565b600061267d82612624565b9150612689828461265b565b60208201915081905092915050565b6126a181612647565b82525050565b600060ff82169050919050565b6126bd816126a7565b82525050565b60006080820190506126d86000830187612698565b6126e560208301866126b4565b6126f26040830185612698565b6126ff6060830184612698565b95945050505050565b7f496e76616c6964207369676e6174757265206c656e6774682e00000000000000600082015250565b600061273e601983611d15565b915061274982612708565b602082019050919050565b6000602082019050818103600083015261276d81612731565b905091905056fea2646970667358221220800c9370541294550ce472ca4c184e503db5439fa8707749053750057d8aa42b64736f6c634300081b0033",
  "linkReferences": {},
  "deployedLinkReferences": {}
}