{
  "_format": "hh-sol-artifact-1",
  "contractName": "EltooChannel",
  "sourceName": "contracts/EltooChannel.sol",
  "abi": [
    {
      "inputs": [
        {
          "internalType": "address",
          "name": "_bob",
          "type": "address"
        },
        {
          "internalType": "uint256",
          "name": "_fundingAmountAlice",
          "type": "uint256"
        },
        {
          "internalType": "uint256",
          "name": "_fundingAmountBob",
          "type": "uint256"
        }
      ],
      "stateMutability": "payable",
      "type": "constructor"
    },
    {
      "anonymous": false,
      "inputs": [
        {
          "indexed": false,
          "internalType": "address",
          "name": "recipient",
          "type": "address"
        },
        {
          "indexed": false,
          "internalType": "uint256",
          "name": "version",
          "type": "uint256"
        },
        {
          "indexed": false,
          "internalType": "uint256",
          "name": "alice_balance",
          "type": "uint256"
        },
        {
          "indexed": false,
          "internalType": "uint256",
          "name": "bob_balance",
          "type": "uint256"
        }
      ],
      "name": "ChannelSettled",
      "type": "event"
    },
    {
      "anonymous": false,
      "inputs": [
        {
          "indexed": false,
          "internalType": "uint256",
          "name": "version",
          "type": "uint256"
        },
        {
          "indexed": true,
          "internalType": "address",
          "name": "sender",
          "type": "address"
        }
      ],
      "name": "StateUpdated",
      "type": "event"
    },
    {
      "anonymous": false,
      "inputs": [
        {
          "indexed": false,
          "internalType": "uint256",
          "name": "version",
          "type": "uint256"
        },
        {
          "indexed": false,
          "internalType": "uint256",
          "name": "_version",
          "type": "uint256"
        }
      ],
      "name": "VersionUpdated",
      "type": "event"
    },
    {
      "inputs": [
        {
          "internalType": "uint256",
          "name": "_newBalanceA",
          "type": "uint256"
        },
        {
          "internalType": "uint256",
          "name": "_newBalanceB",
          "type": "uint256"
        },
        {
          "internalType": "bytes",
          "name": "_signature",
          "type": "bytes"
        }
      ],
      "name": "CooperateTX",
      "outputs": [],
      "stateMutability": "nonpayable",
      "type": "function"
    },
    {
      "inputs": [],
      "name": "alice",
      "outputs": [
        {
          "internalType": "address",
          "name": "",
          "type": "address"
        }
      ],
      "stateMutability": "view",
      "type": "function"
    },
    {
      "inputs": [],
      "name": "aliceBalance",
      "outputs": [
        {
          "internalType": "uint256",
          "name": "",
          "type": "uint256"
        }
      ],
      "stateMutability": "view",
      "type": "function"
    },
    {
      "inputs": [
        {
          "internalType": "address",
          "name": "",
          "type": "address"
        }
      ],
      "name": "balances",
      "outputs": [
        {
          "internalType": "uint256",
          "name": "",
          "type": "uint256"
        }
      ],
      "stateMutability": "view",
      "type": "function"
    },
    {
      "inputs": [],
      "name": "bob",
      "outputs": [
        {
          "internalType": "address",
          "name": "",
          "type": "address"
        }
      ],
      "stateMutability": "view",
      "type": "function"
    },
    {
      "inputs": [],
      "name": "bobBalance",
      "outputs": [
        {
          "internalType": "uint256",
          "name": "",
          "type": "uint256"
        }
      ],
      "stateMutability": "view",
      "type": "function"
    },
    {
      "inputs": [
        {
          "internalType": "uint256",
          "name": "_newBalanceA",
          "type": "uint256"
        },
        {
          "internalType": "uint256",
          "name": "_newBalanceB",
          "type": "uint256"
        },
        {
          "internalType": "uint256",
          "name": "_version",
          "type": "uint256"
        },
        {
          "internalType": "bytes",
          "name": "_signature",
          "type": "bytes"
        }
      ],
      "name": "broadcastTriggerTX",
      "outputs": [],
      "stateMutability": "nonpayable",
      "type": "function"
    },
    {
      "inputs": [],
      "name": "fundByBob",
      "outputs": [],
      "stateMutability": "payable",
      "type": "function"
    },
    {
      "inputs": [],
      "name": "fundingAmountAlice",
      "outputs": [
        {
          "internalType": "uint256",
          "name": "",
          "type": "uint256"
        }
      ],
      "stateMutability": "view",
      "type": "function"
    },
    {
      "inputs": [],
      "name": "fundingAmountBob",
      "outputs": [
        {
          "internalType": "uint256",
          "name": "",
          "type": "uint256"
        }
      ],
      "stateMutability": "view",
      "type": "function"
    },
    {
      "inputs": [],
      "name": "getChannelBalance",
      "outputs": [
        {
          "internalType": "uint256",
          "name": "",
          "type": "uint256"
        },
        {
          "internalType": "uint256",
          "name": "",
          "type": "uint256"
        }
      ],
      "stateMutability": "view",
      "type": "function"
    },
    {
      "inputs": [],
      "name": "isChannelOpen",
      "outputs": [
        {
          "internalType": "bool",
          "name": "",
          "type": "bool"
        }
      ],
      "stateMutability": "view",
      "type": "function"
    },
    {
      "inputs": [],
      "name": "isFundingComplete",
      "outputs": [
        {
          "internalType": "bool",
          "name": "",
          "type": "bool"
        }
      ],
      "stateMutability": "view",
      "type": "function"
    },
    {
      "inputs": [],
      "name": "lastUpdated",
      "outputs": [
        {
          "internalType": "uint256",
          "name": "",
          "type": "uint256"
        }
      ],
      "stateMutability": "view",
      "type": "function"
    },
    {
      "inputs": [
        {
          "internalType": "uint256",
          "name": "_balanceA",
          "type": "uint256"
        },
        {
          "internalType": "uint256",
          "name": "_balanceB",
          "type": "uint256"
        },
        {
          "internalType": "uint256",
          "name": "_version",
          "type": "uint256"
        },
        {
          "internalType": "uint256",
          "name": "_timelock",
          "type": "uint256"
        },
        {
          "internalType": "bytes",
          "name": "_signature",
          "type": "bytes"
        }
      ],
      "name": "settleChannel",
      "outputs": [],
      "stateMutability": "nonpayable",
      "type": "function"
    },
    {
      "inputs": [
        {
          "internalType": "uint256",
          "name": "_aliceDeposit",
          "type": "uint256"
        },
        {
          "internalType": "uint256",
          "name": "_bobDeposit",
          "type": "uint256"
        }
      ],
      "name": "signFundingTransaction",
      "outputs": [],
      "stateMutability": "nonpayable",
      "type": "function"
    },
    {
      "inputs": [],
      "name": "timeout",
      "outputs": [
        {
          "internalType": "uint256",
          "name": "",
          "type": "uint256"
        }
      ],
      "stateMutability": "view",
      "type": "function"
    },
    {
      "inputs": [
        {
          "internalType": "uint256",
          "name": "_newBalanceA",
          "type": "uint256"
        },
        {
          "internalType": "uint256",
          "name": "_newBalanceB",
          "type": "uint256"
        },
        {
          "internalType": "uint256",
          "name": "_version",
          "type": "uint256"
        },
        {
          "internalType": "uint256",
          "name": "_timeout",
          "type": "uint256"
        },
        {
          "internalType": "bytes",
          "name": "_signature",
          "type": "bytes"
        }
      ],
      "name": "updateState",
      "outputs": [],
      "stateMutability": "nonpayable",
      "type": "function"
    },
    {
      "inputs": [],
      "name": "version",
      "outputs": [
        {
          "internalType": "uint256",
          "name": "",
          "type": "uint256"
        }
      ],
      "stateMutability": "view",
      "type": "function"
    }
  ],
  "bytecode": "0x6080604052604051612605380380612605833981810160405281019061002591906101e4565b813414610067576040517f08c379a000000000000000000000000000000000000000000000000000000000815260040161005e906102ba565b60405180910390fd5b336000806101000a81548173ffffffffffffffffffffffffffffffffffffffff021916908373ffffffffffffffffffffffffffffffffffffffff16021790555082600160006101000a81548173ffffffffffffffffffffffffffffffffffffffff021916908373ffffffffffffffffffffffffffffffffffffffff16021790555081600281905550806003819055506000600781905550600a600881905550426009819055506000600460006101000a81548160ff0219169083151502179055506000600a60006101000a81548160ff0219169083151502179055505050506102da565b600080fd5b600073ffffffffffffffffffffffffffffffffffffffff82169050919050565b600061017b82610150565b9050919050565b61018b81610170565b811461019657600080fd5b50565b6000815190506101a881610182565b92915050565b6000819050919050565b6101c1816101ae565b81146101cc57600080fd5b50565b6000815190506101de816101b8565b92915050565b6000806000606084860312156101fd576101fc61014b565b5b600061020b86828701610199565b935050602061021c868287016101cf565b925050604061022d868287016101cf565b9150509250925092565b600082825260208201905092915050565b7f496e636f72726563742066756e64696e6720616d6f756e7420666f7220416c6960008201527f6365000000000000000000000000000000000000000000000000000000000000602082015250565b60006102a4602283610237565b91506102af82610248565b604082019050919050565b600060208201905081810360008301526102d381610297565b9050919050565b61231c806102e96000396000f3fe6080604052600436106101145760003560e01c80637145ce22116100a0578063c4e702e511610064578063c4e702e51461035f578063cc8e50851461038a578063d0b06f5d146103b3578063d5407d99146103de578063fb47e3a21461040757610114565b80637145ce22146102ab5780638ba4848a146102b55780639b01d0c3146102e05780639da54d721461030b578063c09cec771461033457610114565b80634e19ed24116100e75780634e19ed24146101d557806354fd4d50146102015780635949b3171461022c5780635fdfe14b1461025557806370dea79a1461028057610114565b806308f5290e1461011957806327e235e31461014257806328eacf9e1461017f5780634ac25224146101aa575b600080fd5b34801561012557600080fd5b50610140600480360381019061013b91906116c8565b610432565b005b34801561014e57600080fd5b50610169600480360381019061016491906117bd565b6107ff565b60405161017691906117f9565b60405180910390f35b34801561018b57600080fd5b50610194610817565b6040516101a191906117f9565b60405180910390f35b3480156101b657600080fd5b506101bf61081d565b6040516101cc919061182f565b60405180910390f35b3480156101e157600080fd5b506101ea610830565b6040516101f892919061184a565b60405180910390f35b34801561020d57600080fd5b50610216610841565b60405161022391906117f9565b60405180910390f35b34801561023857600080fd5b50610253600480360381019061024e91906116c8565b610847565b005b34801561026157600080fd5b5061026a610b76565b60405161027791906117f9565b60405180910390f35b34801561028c57600080fd5b50610295610b7c565b6040516102a291906117f9565b60405180910390f35b6102b3610b82565b005b3480156102c157600080fd5b506102ca610c85565b6040516102d791906117f9565b60405180910390f35b3480156102ec57600080fd5b506102f5610c8b565b604051610302919061182f565b60405180910390f35b34801561031757600080fd5b50610332600480360381019061032d9190611873565b610c9e565b005b34801561034057600080fd5b50610349610f39565b6040516103569190611905565b60405180910390f35b34801561036b57600080fd5b50610374610f5f565b60405161038191906117f9565b60405180910390f35b34801561039657600080fd5b506103b160048036038101906103ac9190611920565b610f65565b005b3480156103bf57600080fd5b506103c8611035565b6040516103d591906117f9565b60405180910390f35b3480156103ea57600080fd5b5061040560048036038101906104009190611960565b61103b565b005b34801561041357600080fd5b5061041c61137b565b6040516104299190611905565b60405180910390f35b6007548314610476576040517f08c379a000000000000000000000000000000000000000000000000000000000815260040161046d90611a52565b60405180910390fd5b816009546104849190611aa1565b4210156104c6576040517f08c379a00000000000000000000000000000000000000000000000000000000081526004016104bd90611b21565b60405180910390fd5b6104f260008054906101000a900473ffffffffffffffffffffffffffffffffffffffff1686868461139f565b610531576040517f08c379a000000000000000000000000000000000000000000000000000000000815260040161052890611bb3565b60405180910390fd5b84600b60008060009054906101000a900473ffffffffffffffffffffffffffffffffffffffff1673ffffffffffffffffffffffffffffffffffffffff1673ffffffffffffffffffffffffffffffffffffffff1681526020019081526020016000208190555083600b6000600160009054906101000a900473ffffffffffffffffffffffffffffffffffffffff1673ffffffffffffffffffffffffffffffffffffffff1673ffffffffffffffffffffffffffffffffffffffff168152602001908152602001600020819055507f70535700caaf49fa204a2e29da3b5576e08d09ddfe3559dfba9e66148129d22760008054906101000a900473ffffffffffffffffffffffffffffffffffffffff1660075487876040516106539493929190611bd3565b60405180910390a160008060009054906101000a900473ffffffffffffffffffffffffffffffffffffffff1673ffffffffffffffffffffffffffffffffffffffff16866040516106a290611c49565b60006040518083038185875af1925050503d80600081146106df576040519150601f19603f3d011682016040523d82523d6000602084013e6106e4565b606091505b5050905080610728576040517f08c379a000000000000000000000000000000000000000000000000000000000815260040161071f90611caa565b60405180910390fd5b6000600160009054906101000a900473ffffffffffffffffffffffffffffffffffffffff1673ffffffffffffffffffffffffffffffffffffffff168660405161077090611c49565b60006040518083038185875af1925050503d80600081146107ad576040519150601f19603f3d011682016040523d82523d6000602084013e6107b2565b606091505b50509050806107f6576040517f08c379a00000000000000000000000000000000000000000000000000000000081526004016107ed90611d16565b60405180910390fd5b50505050505050565b600b6020528060005260406000206000915090505481565b60025481565b600460009054906101000a900460ff1681565b600080600554600654915091509091565b60075481565b60008054906101000a900473ffffffffffffffffffffffffffffffffffffffff1673ffffffffffffffffffffffffffffffffffffffff163373ffffffffffffffffffffffffffffffffffffffff1614806108ee5750600160009054906101000a900473ffffffffffffffffffffffffffffffffffffffff1673ffffffffffffffffffffffffffffffffffffffff163373ffffffffffffffffffffffffffffffffffffffff16145b61092d576040517f08c379a000000000000000000000000000000000000000000000000000000000815260040161092490611d82565b60405180910390fd5b6007548311610971576040517f08c379a000000000000000000000000000000000000000000000000000000000815260040161096890611e14565b60405180910390fd5b8160095461097f9190611aa1565b42106109c0576040517f08c379a00000000000000000000000000000000000000000000000000000000081526004016109b790611e80565b60405180910390fd5b6109cc3386868461139f565b610a0b576040517f08c379a0000000000000000000000000000000000000000000000000000000008152600401610a0290611eec565b60405180910390fd5b84600b60008060009054906101000a900473ffffffffffffffffffffffffffffffffffffffff1673ffffffffffffffffffffffffffffffffffffffff1673ffffffffffffffffffffffffffffffffffffffff1681526020019081526020016000208190555083600b6000600160009054906101000a900473ffffffffffffffffffffffffffffffffffffffff1673ffffffffffffffffffffffffffffffffffffffff1673ffffffffffffffffffffffffffffffffffffffff1681526020019081526020016000208190555082600781905550426009819055507f89ed32ba32f29e9f670cdb73f0eb0c260af0210f942ffe75084741eabe83578960075484604051610b1792919061184a565b60405180910390a13373ffffffffffffffffffffffffffffffffffffffff167f40b37ebf3a5a1bcba0e02175c7a1e5baeffca261e1806af8ad5c4d396c74251d600754604051610b6791906117f9565b60405180910390a25050505050565b60035481565b60085481565b600160009054906101000a900473ffffffffffffffffffffffffffffffffffffffff1673ffffffffffffffffffffffffffffffffffffffff163373ffffffffffffffffffffffffffffffffffffffff1614610c12576040517f08c379a0000000000000000000000000000000000000000000000000000000008152600401610c0990611f58565b60405180910390fd5b6003543414610c56576040517f08c379a0000000000000000000000000000000000000000000000000000000008152600401610c4d90611fc4565b60405180910390fd5b6002546005819055506003546006819055506001600460006101000a81548160ff021916908315150217905550565b60055481565b600a60009054906101000a900460ff1681565b60008054906101000a900473ffffffffffffffffffffffffffffffffffffffff1673ffffffffffffffffffffffffffffffffffffffff163373ffffffffffffffffffffffffffffffffffffffff161480610d455750600160009054906101000a900473ffffffffffffffffffffffffffffffffffffffff1673ffffffffffffffffffffffffffffffffffffffff163373ffffffffffffffffffffffffffffffffffffffff16145b610d84576040517f08c379a0000000000000000000000000000000000000000000000000000000008152600401610d7b90611d82565b60405180910390fd5b610d903385858461139f565b610dcf576040517f08c379a0000000000000000000000000000000000000000000000000000000008152600401610dc690611eec565b60405180910390fd5b83600b60008060009054906101000a900473ffffffffffffffffffffffffffffffffffffffff1673ffffffffffffffffffffffffffffffffffffffff1673ffffffffffffffffffffffffffffffffffffffff1681526020019081526020016000208190555082600b6000600160009054906101000a900473ffffffffffffffffffffffffffffffffffffffff1673ffffffffffffffffffffffffffffffffffffffff1673ffffffffffffffffffffffffffffffffffffffff1681526020019081526020016000208190555081600781905550426009819055507f89ed32ba32f29e9f670cdb73f0eb0c260af0210f942ffe75084741eabe83578960075483604051610edb92919061184a565b60405180910390a13373ffffffffffffffffffffffffffffffffffffffff167f40b37ebf3a5a1bcba0e02175c7a1e5baeffca261e1806af8ad5c4d396c74251d600754604051610f2b91906117f9565b60405180910390a250505050565b600160009054906101000a900473ffffffffffffffffffffffffffffffffffffffff1681565b60065481565b6000600254118015610f7957506000600354115b610fb8576040517f08c379a0000000000000000000000000000000000000000000000000000000008152600401610faf90612030565b60405180910390fd5b600a60009054906101000a900460ff1615611008576040517f08c379a0000000000000000000000000000000000000000000000000000000008152600401610fff9061209c565b60405180910390fd5b81600581905550806006819055506001600a60006101000a81548160ff0219169083151502179055505050565b60095481565b60008054906101000a900473ffffffffffffffffffffffffffffffffffffffff1673ffffffffffffffffffffffffffffffffffffffff163373ffffffffffffffffffffffffffffffffffffffff1614806110e25750600160009054906101000a900473ffffffffffffffffffffffffffffffffffffffff1673ffffffffffffffffffffffffffffffffffffffff163373ffffffffffffffffffffffffffffffffffffffff16145b611121576040517f08c379a000000000000000000000000000000000000000000000000000000000815260040161111890611d82565b60405180910390fd5b61112d3384848461139f565b61116c576040517f08c379a000000000000000000000000000000000000000000000000000000000815260040161116390611eec565b60405180910390fd5b82600581905550816006819055507f70535700caaf49fa204a2e29da3b5576e08d09ddfe3559dfba9e66148129d22760008054906101000a900473ffffffffffffffffffffffffffffffffffffffff1660075485856040516111d19493929190611bd3565b60405180910390a160008060009054906101000a900473ffffffffffffffffffffffffffffffffffffffff1673ffffffffffffffffffffffffffffffffffffffff168460405161122090611c49565b60006040518083038185875af1925050503d806000811461125d576040519150601f19603f3d011682016040523d82523d6000602084013e611262565b606091505b50509050806112a6576040517f08c379a000000000000000000000000000000000000000000000000000000000815260040161129d90611caa565b60405180910390fd5b6000600160009054906101000a900473ffffffffffffffffffffffffffffffffffffffff1673ffffffffffffffffffffffffffffffffffffffff16846040516112ee90611c49565b60006040518083038185875af1925050503d806000811461132b576040519150601f19603f3d011682016040523d82523d6000602084013e611330565b606091505b5050905080611374576040517f08c379a000000000000000000000000000000000000000000000000000000000815260040161136b90611d16565b60405180910390fd5b5050505050565b60008054906101000a900473ffffffffffffffffffffffffffffffffffffffff1681565b6000803085856040516020016113b793929190612125565b60405160208183030381529060405280519060200120905060006113da82611420565b90508673ffffffffffffffffffffffffffffffffffffffff166113fd8286611450565b73ffffffffffffffffffffffffffffffffffffffff161492505050949350505050565b60008160405160200161143391906121e4565b604051602081830303815290604052805190602001209050919050565b60008060008061145f856114bf565b925092509250600186848484604051600081526020016040526040516114889493929190612235565b6020604051602081039080840390855afa1580156114aa573d6000803e3d6000fd5b50505060206040510351935050505092915050565b60008060006041845114611508576040517f08c379a00000000000000000000000000000000000000000000000000000000081526004016114ff906122c6565b60405180910390fd5b60008060006020870151925060408701519150606087015160001a90508083839550955095505050509193909250565b6000604051905090565b600080fd5b600080fd5b6000819050919050565b61155f8161154c565b811461156a57600080fd5b50565b60008135905061157c81611556565b92915050565b600080fd5b600080fd5b6000601f19601f8301169050919050565b7f4e487b7100000000000000000000000000000000000000000000000000000000600052604160045260246000fd5b6115d58261158c565b810181811067ffffffffffffffff821117156115f4576115f361159d565b5b80604052505050565b6000611607611538565b905061161382826115cc565b919050565b600067ffffffffffffffff8211156116335761163261159d565b5b61163c8261158c565b9050602081019050919050565b82818337600083830152505050565b600061166b61166684611618565b6115fd565b90508281526020810184848401111561168757611686611587565b5b611692848285611649565b509392505050565b600082601f8301126116af576116ae611582565b5b81356116bf848260208601611658565b91505092915050565b600080600080600060a086880312156116e4576116e3611542565b5b60006116f28882890161156d565b95505060206117038882890161156d565b94505060406117148882890161156d565b93505060606117258882890161156d565b925050608086013567ffffffffffffffff81111561174657611745611547565b5b6117528882890161169a565b9150509295509295909350565b600073ffffffffffffffffffffffffffffffffffffffff82169050919050565b600061178a8261175f565b9050919050565b61179a8161177f565b81146117a557600080fd5b50565b6000813590506117b781611791565b92915050565b6000602082840312156117d3576117d2611542565b5b60006117e1848285016117a8565b91505092915050565b6117f38161154c565b82525050565b600060208201905061180e60008301846117ea565b92915050565b60008115159050919050565b61182981611814565b82525050565b60006020820190506118446000830184611820565b92915050565b600060408201905061185f60008301856117ea565b61186c60208301846117ea565b9392505050565b6000806000806080858703121561188d5761188c611542565b5b600061189b8782880161156d565b94505060206118ac8782880161156d565b93505060406118bd8782880161156d565b925050606085013567ffffffffffffffff8111156118de576118dd611547565b5b6118ea8782880161169a565b91505092959194509250565b6118ff8161177f565b82525050565b600060208201905061191a60008301846118f6565b92915050565b6000806040838503121561193757611936611542565b5b60006119458582860161156d565b92505060206119568582860161156d565b9150509250929050565b60008060006060848603121561197957611978611542565b5b60006119878682870161156d565b93505060206119988682870161156d565b925050604084013567ffffffffffffffff8111156119b9576119b8611547565b5b6119c58682870161169a565b9150509250925092565b600082825260208201905092915050565b7f496e76616c69642076657273696f6e3a206d757374206d61746368207468652060008201527f6c61746573742073746174650000000000000000000000000000000000000000602082015250565b6000611a3c602c836119cf565b9150611a47826119e0565b604082019050919050565b60006020820190508181036000830152611a6b81611a2f565b9050919050565b7f4e487b7100000000000000000000000000000000000000000000000000000000600052601160045260246000fd5b6000611aac8261154c565b9150611ab78361154c565b9250828201905080821115611acf57611ace611a72565b5b92915050565b7f54696d656c6f636b206e6f742072656163686564000000000000000000000000600082015250565b6000611b0b6014836119cf565b9150611b1682611ad5565b602082019050919050565b60006020820190508181036000830152611b3a81611afe565b9050919050565b7f496e76616c6964207369676e61747572653a206f6e6c7920416c69636520636160008201527f6e20736574746c65000000000000000000000000000000000000000000000000602082015250565b6000611b9d6028836119cf565b9150611ba882611b41565b604082019050919050565b60006020820190508181036000830152611bcc81611b90565b9050919050565b6000608082019050611be860008301876118f6565b611bf560208301866117ea565b611c0260408301856117ea565b611c0f60608301846117ea565b95945050505050565b600081905092915050565b50565b6000611c33600083611c18565b9150611c3e82611c23565b600082019050919050565b6000611c5482611c26565b9150819050919050565b7f5472616e7366657220746f20416c696365206661696c65640000000000000000600082015250565b6000611c946018836119cf565b9150611c9f82611c5e565b602082019050919050565b60006020820190508181036000830152611cc381611c87565b9050919050565b7f5472616e7366657220746f20426f62206661696c656400000000000000000000600082015250565b6000611d006016836119cf565b9150611d0b82611cca565b602082019050919050565b60006020820190508181036000830152611d2f81611cf3565b9050919050565b7f4f6e6c7920706172746965732063616e20757064617465207374617465000000600082015250565b6000611d6c601d836119cf565b9150611d7782611d36565b602082019050919050565b60006020820190508181036000830152611d9b81611d5f565b9050919050565b7f4e65772076657273696f6e206d7573742062652067726561746572207468616e60008201527f2063757272656e742076657273696f6e00000000000000000000000000000000602082015250565b6000611dfe6030836119cf565b9150611e0982611da2565b604082019050919050565b60006020820190508181036000830152611e2d81611df1565b9050919050565b7f5374617465207570646174652074696d656f7574206578636565646564000000600082015250565b6000611e6a601d836119cf565b9150611e7582611e34565b602082019050919050565b60006020820190508181036000830152611e9981611e5d565b9050919050565b7f496e76616c6964207369676e6174757265000000000000000000000000000000600082015250565b6000611ed66011836119cf565b9150611ee182611ea0565b602082019050919050565b60006020820190508181036000830152611f0581611ec9565b9050919050565b7f4f6e6c7920426f622063616e2066756e64207468697300000000000000000000600082015250565b6000611f426016836119cf565b9150611f4d82611f0c565b602082019050919050565b60006020820190508181036000830152611f7181611f35565b9050919050565b7f496e636f72726563742066756e64696e6720616d6f756e7420666f7220426f62600082015250565b6000611fae6020836119cf565b9150611fb982611f78565b602082019050919050565b60006020820190508181036000830152611fdd81611fa1565b9050919050565b7f426f74682070617274696573206d757374206465706f7369742066756e64732e600082015250565b600061201a6020836119cf565b915061202582611fe4565b602082019050919050565b600060208201905081810360008301526120498161200d565b9050919050565b7f46756e64696e6720697320616c726561647920636f6d706c6574652e00000000600082015250565b6000612086601c836119cf565b915061209182612050565b602082019050919050565b600060208201905081810360008301526120b581612079565b9050919050565b60008160601b9050919050565b60006120d4826120bc565b9050919050565b60006120e6826120c9565b9050919050565b6120fe6120f98261177f565b6120db565b82525050565b6000819050919050565b61211f61211a8261154c565b612104565b82525050565b600061213182866120ed565b601482019150612141828561210e565b602082019150612151828461210e565b602082019150819050949350505050565b600081905092915050565b7f19457468657265756d205369676e6564204d6573736167653a0a333200000000600082015250565b60006121a3601c83612162565b91506121ae8261216d565b601c82019050919050565b6000819050919050565b6000819050919050565b6121de6121d9826121b9565b6121c3565b82525050565b60006121ef82612196565b91506121fb82846121cd565b60208201915081905092915050565b612213816121b9565b82525050565b600060ff82169050919050565b61222f81612219565b82525050565b600060808201905061224a600083018761220a565b6122576020830186612226565b612264604083018561220a565b612271606083018461220a565b95945050505050565b7f496e76616c6964207369676e6174757265206c656e6774682e00000000000000600082015250565b60006122b06019836119cf565b91506122bb8261227a565b602082019050919050565b600060208201905081810360008301526122df816122a3565b905091905056fea2646970667358221220439bdda34a9d1b6b130e7fbf3218ec4869cebebc437f0113e13bc527bd800c3664736f6c634300081b0033",
  "linkReferences": {},
  "deployedLinkReferences": {}
}