{
  "_format": "hh-sol-artifact-1",
  "contractName": "BidirectionalPaymentChannel",
  "sourceName": "contracts/BidirectionalPaymentChannel.sol",
  "abi": [
    {
      "inputs": [
        {
          "internalType": "address",
          "name": "_bob",
          "type": "address"
        },
        {
          "internalType": "uint256",
          "name": "_duration",
          "type": "uint256"
        }
      ],
      "stateMutability": "payable",
      "type": "constructor"
    },
    {
      "anonymous": false,
      "inputs": [
        {
          "indexed": true,
          "internalType": "address",
          "name": "closer",
          "type": "address"
        },
        {
          "indexed": false,
          "internalType": "uint256",
          "name": "aliceBalance",
          "type": "uint256"
        },
        {
          "indexed": false,
          "internalType": "uint256",
          "name": "bobBalance",
          "type": "uint256"
        }
      ],
      "name": "ChannelClosed",
      "type": "event"
    },
    {
      "anonymous": false,
      "inputs": [
        {
          "indexed": true,
          "internalType": "address",
          "name": "participant",
          "type": "address"
        },
        {
          "indexed": false,
          "internalType": "uint256",
          "name": "amount",
          "type": "uint256"
        }
      ],
      "name": "ChannelFunded",
      "type": "event"
    },
    {
      "anonymous": false,
      "inputs": [],
      "name": "FundingComplete",
      "type": "event"
    },
    {
      "anonymous": false,
      "inputs": [
        {
          "indexed": true,
          "internalType": "address",
          "name": "participant",
          "type": "address"
        },
        {
          "indexed": false,
          "internalType": "uint256",
          "name": "amount",
          "type": "uint256"
        }
      ],
      "name": "FundsWithdrawn",
      "type": "event"
    },
    {
      "inputs": [],
      "name": "alice",
      "outputs": [
        {
          "internalType": "address",
          "name": "",
          "type": "address"
        }
      ],
      "stateMutability": "view",
      "type": "function"
    },
    {
      "inputs": [],
      "name": "aliceBalance",
      "outputs": [
        {
          "internalType": "uint256",
          "name": "",
          "type": "uint256"
        }
      ],
      "stateMutability": "view",
      "type": "function"
    },
    {
      "inputs": [],
      "name": "aliceConfirmsSignatures",
      "outputs": [],
      "stateMutability": "nonpayable",
      "type": "function"
    },
    {
      "inputs": [],
      "name": "aliceDeposit",
      "outputs": [
        {
          "internalType": "uint256",
          "name": "",
          "type": "uint256"
        }
      ],
      "stateMutability": "view",
      "type": "function"
    },
    {
      "inputs": [],
      "name": "aliceSignatureComplete",
      "outputs": [
        {
          "internalType": "bool",
          "name": "",
          "type": "bool"
        }
      ],
      "stateMutability": "view",
      "type": "function"
    },
    {
      "inputs": [],
      "name": "bob",
      "outputs": [
        {
          "internalType": "address",
          "name": "",
          "type": "address"
        }
      ],
      "stateMutability": "view",
      "type": "function"
    },
    {
      "inputs": [],
      "name": "bobBalance",
      "outputs": [
        {
          "internalType": "uint256",
          "name": "",
          "type": "uint256"
        }
      ],
      "stateMutability": "view",
      "type": "function"
    },
    {
      "inputs": [],
      "name": "bobConfirmsSignatures",
      "outputs": [],
      "stateMutability": "nonpayable",
      "type": "function"
    },
    {
      "inputs": [],
      "name": "bobDeposit",
      "outputs": [
        {
          "internalType": "uint256",
          "name": "",
          "type": "uint256"
        }
      ],
      "stateMutability": "view",
      "type": "function"
    },
    {
      "inputs": [],
      "name": "bobSignatureComplete",
      "outputs": [
        {
          "internalType": "bool",
          "name": "",
          "type": "bool"
        }
      ],
      "stateMutability": "view",
      "type": "function"
    },
    {
      "inputs": [
        {
          "internalType": "uint256",
          "name": "_depth",
          "type": "uint256"
        },
        {
          "internalType": "uint256",
          "name": "_aliceBalance",
          "type": "uint256"
        },
        {
          "internalType": "uint256",
          "name": "_bobBalance",
          "type": "uint256"
        },
        {
          "internalType": "bytes",
          "name": "aliceSignature",
          "type": "bytes"
        }
      ],
      "name": "broadcastBranch",
      "outputs": [],
      "stateMutability": "nonpayable",
      "type": "function"
    },
    {
      "inputs": [
        {
          "internalType": "uint256",
          "name": "_aliceBalance",
          "type": "uint256"
        },
        {
          "internalType": "uint256",
          "name": "_bobBalance",
          "type": "uint256"
        },
        {
          "internalType": "bytes",
          "name": "aliceSignature",
          "type": "bytes"
        },
        {
          "internalType": "bytes",
          "name": "bobSignature",
          "type": "bytes"
        }
      ],
      "name": "broadcastPaymentTxAB",
      "outputs": [],
      "stateMutability": "nonpayable",
      "type": "function"
    },
    {
      "inputs": [
        {
          "internalType": "uint256",
          "name": "_aliceBalance",
          "type": "uint256"
        },
        {
          "internalType": "uint256",
          "name": "_bobBalance",
          "type": "uint256"
        },
        {
          "internalType": "bytes",
          "name": "aliceSignature",
          "type": "bytes"
        },
        {
          "internalType": "bytes",
          "name": "bobSignature",
          "type": "bytes"
        }
      ],
      "name": "broadcastPaymentTxBA",
      "outputs": [],
      "stateMutability": "nonpayable",
      "type": "function"
    },
    {
      "inputs": [
        {
          "internalType": "uint256",
          "name": "_aliceBalance",
          "type": "uint256"
        },
        {
          "internalType": "uint256",
          "name": "_bobBalance",
          "type": "uint256"
        },
        {
          "internalType": "bytes",
          "name": "aliceSignature",
          "type": "bytes"
        },
        {
          "internalType": "bytes",
          "name": "bobSignature",
          "type": "bytes"
        }
      ],
      "name": "closeChannel",
      "outputs": [],
      "stateMutability": "nonpayable",
      "type": "function"
    },
    {
      "inputs": [],
      "name": "currentDepth",
      "outputs": [
        {
          "internalType": "uint256",
          "name": "",
          "type": "uint256"
        }
      ],
      "stateMutability": "view",
      "type": "function"
    },
    {
      "inputs": [],
      "name": "expiration",
      "outputs": [
        {
          "internalType": "uint256",
          "name": "",
          "type": "uint256"
        }
      ],
      "stateMutability": "view",
      "type": "function"
    },
    {
      "inputs": [],
      "name": "fundByBob",
      "outputs": [],
      "stateMutability": "payable",
      "type": "function"
    },
    {
      "inputs": [],
      "name": "getAliceDeposit",
      "outputs": [
        {
          "internalType": "uint256",
          "name": "",
          "type": "uint256"
        }
      ],
      "stateMutability": "view",
      "type": "function"
    },
    {
      "inputs": [],
      "name": "getBobBalance",
      "outputs": [
        {
          "internalType": "uint256",
          "name": "",
          "type": "uint256"
        }
      ],
      "stateMutability": "view",
      "type": "function"
    },
    {
      "inputs": [],
      "name": "isChannelClosed",
      "outputs": [
        {
          "internalType": "bool",
          "name": "",
          "type": "bool"
        }
      ],
      "stateMutability": "view",
      "type": "function"
    },
    {
      "inputs": [],
      "name": "isClosed",
      "outputs": [
        {
          "internalType": "bool",
          "name": "",
          "type": "bool"
        }
      ],
      "stateMutability": "view",
      "type": "function"
    },
    {
      "inputs": [],
      "name": "isFundingComplete",
      "outputs": [
        {
          "internalType": "bool",
          "name": "",
          "type": "bool"
        }
      ],
      "stateMutability": "view",
      "type": "function"
    },
    {
      "inputs": [],
      "name": "refund",
      "outputs": [],
      "stateMutability": "nonpayable",
      "type": "function"
    },
    {
      "inputs": [
        {
          "internalType": "uint256",
          "name": "_aliceDeposit",
          "type": "uint256"
        },
        {
          "internalType": "uint256",
          "name": "_bobDeposit",
          "type": "uint256"
        }
      ],
      "name": "signFundingTransaction",
      "outputs": [],
      "stateMutability": "nonpayable",
      "type": "function"
    }
  ],
  "bytecode": "0x6080604052604051620027a1380380620027a18339818101604052810190620000299190620001e7565b336000806101000a81548173ffffffffffffffffffffffffffffffffffffffff021916908373ffffffffffffffffffffffffffffffffffffffff16021790555081600160006101000a81548173ffffffffffffffffffffffffffffffffffffffff021916908373ffffffffffffffffffffffffffffffffffffffff1602179055508042620000b89190620002f1565b6002819055506000600360006101000a81548160ff0219169083151502179055506000600360016101000a81548160ff021916908315150217905550600034116200013a576040517f08c379a00000000000000000000000000000000000000000000000000000000081526004016200013190620002a1565b60405180910390fd5b3460048190555060008054906101000a900473ffffffffffffffffffffffffffffffffffffffff1673ffffffffffffffffffffffffffffffffffffffff167f098da306ddd2537f6447ac21569057632d7b220958901a59f69213c81495e64834604051620001a99190620002c3565b60405180910390a25050620003ef565b600081519050620001ca81620003bb565b92915050565b600081519050620001e181620003d5565b92915050565b60008060408385031215620001fb57600080fd5b60006200020b85828601620001b9565b92505060206200021e85828601620001d0565b9150509250929050565b600062000237602583620002e0565b91507f416c696365206d757374206465706f7369742061206e6f6e2d7a65726f20616d60008301527f6f756e742e0000000000000000000000000000000000000000000000000000006020830152604082019050919050565b6200029b8162000382565b82525050565b60006020820190508181036000830152620002bc8162000228565b9050919050565b6000602082019050620002da600083018462000290565b92915050565b600082825260208201905092915050565b6000620002fe8262000382565b91506200030b8362000382565b9250827fffffffffffffffffffffffffffffffffffffffffffffffffffffffffffffffff038211156200034357620003426200038c565b5b828201905092915050565b60006200035b8262000362565b9050919050565b600073ffffffffffffffffffffffffffffffffffffffff82169050919050565b6000819050919050565b7f4e487b7100000000000000000000000000000000000000000000000000000000600052601160045260246000fd5b620003c6816200034e565b8114620003d257600080fd5b50565b620003e08162000382565b8114620003ec57600080fd5b50565b6123a280620003ff6000396000f3fe60806040526004361061014b5760003560e01c80639b01d0c3116100b6578063c4fc3a0f1161006f578063c4fc3a0f146103f5578063c9edf89c1461041e578063cc8e508514610449578063d8faf91a14610472578063f1a16f681461049b578063fb47e3a2146104c65761014b565b80639b01d0c3146102f5578063aaed5d6b14610320578063bb8b5d491461034b578063c09cec7714610374578063c2b6b58c1461039f578063c4e702e5146103ca5761014b565b80636807297211610108578063680729721461022a5780636e5c8b3c146102555780637145ce22146102805780638269a3f71461028a5780638ba4848a146102b357806397ee49ec146102de5761014b565b80630a01bcfd146101505780631a609e7a1461017b5780633911c5e91461019257806345454d62146101bd5780634665096d146101e8578063590e1ae314610213575b600080fd5b34801561015c57600080fd5b506101656104f1565b60405161017291906120d9565b60405180910390f35b34801561018757600080fd5b506101906104fb565b005b34801561019e57600080fd5b506101a76105a8565b6040516101b49190611e79565b60405180910390f35b3480156101c957600080fd5b506101d26105bf565b6040516101df91906120d9565b60405180910390f35b3480156101f457600080fd5b506101fd6105c5565b60405161020a91906120d9565b60405180910390f35b34801561021f57600080fd5b506102286105cb565b005b34801561023657600080fd5b5061023f6107bf565b60405161024c9190611e79565b60405180910390f35b34801561026157600080fd5b5061026a6107d2565b60405161027791906120d9565b60405180910390f35b6102886107d8565b005b34801561029657600080fd5b506102b160048036038101906102ac919061172e565b610974565b005b3480156102bf57600080fd5b506102c8610a9e565b6040516102d591906120d9565b60405180910390f35b3480156102ea57600080fd5b506102f3610aa4565b005b34801561030157600080fd5b5061030a610b4f565b6040516103179190611e79565b60405180910390f35b34801561032c57600080fd5b50610335610b62565b6040516103429190611e79565b60405180910390f35b34801561035757600080fd5b50610372600480360381019061036d919061172e565b610b75565b005b34801561038057600080fd5b50610389610d6a565b6040516103969190611e5e565b60405180910390f35b3480156103ab57600080fd5b506103b4610d90565b6040516103c19190611e79565b60405180910390f35b3480156103d657600080fd5b506103df610da3565b6040516103ec91906120d9565b60405180910390f35b34801561040157600080fd5b5061041c600480360381019061041791906117c1565b610da9565b005b34801561042a57600080fd5b50610433610ef3565b60405161044091906120d9565b60405180910390f35b34801561045557600080fd5b50610470600480360381019061046b91906116f2565b610ef9565b005b34801561047e57600080fd5b506104996004803603810190610494919061172e565b611030565b005b3480156104a757600080fd5b506104b061115a565b6040516104bd91906120d9565b60405180910390f35b3480156104d257600080fd5b506104db611164565b6040516104e89190611e5e565b60405180910390f35b6000600454905090565b600160009054906101000a900473ffffffffffffffffffffffffffffffffffffffff1673ffffffffffffffffffffffffffffffffffffffff163373ffffffffffffffffffffffffffffffffffffffff161461058b576040517f08c379a000000000000000000000000000000000000000000000000000000000815260040161058290611ed9565b60405180910390fd5b6001600860016101000a81548160ff021916908315150217905550565b6000600360009054906101000a900460ff16905090565b60095481565b60025481565b600254421015610610576040517f08c379a000000000000000000000000000000000000000000000000000000000815260040161060790612039565b60405180910390fd5b600360009054906101000a900460ff1615610660576040517f08c379a000000000000000000000000000000000000000000000000000000000815260040161065790611f59565b60405180910390fd5b60008054906101000a900473ffffffffffffffffffffffffffffffffffffffff1673ffffffffffffffffffffffffffffffffffffffff163373ffffffffffffffffffffffffffffffffffffffff1614806107075750600160009054906101000a900473ffffffffffffffffffffffffffffffffffffffff1673ffffffffffffffffffffffffffffffffffffffff163373ffffffffffffffffffffffffffffffffffffffff16145b610746576040517f08c379a000000000000000000000000000000000000000000000000000000000815260040161073d90611f19565b60405180910390fd5b6001600360006101000a81548160ff0219169083151502179055503373ffffffffffffffffffffffffffffffffffffffff167f7f0dbf1dcabb4e6139d1c5fcd19f995708cbdb907b080dc4b48c9b8d671dcef36006546007546040516107ad9291906120f4565b60405180910390a26107bd611188565b565b600860019054906101000a900460ff1681565b60055481565b600160009054906101000a900473ffffffffffffffffffffffffffffffffffffffff1673ffffffffffffffffffffffffffffffffffffffff163373ffffffffffffffffffffffffffffffffffffffff1614610868576040517f08c379a000000000000000000000000000000000000000000000000000000000815260040161085f90612059565b60405180910390fd5b600034116108ab576040517f08c379a00000000000000000000000000000000000000000000000000000000081526004016108a290611fb9565b60405180910390fd5b600360019054906101000a900460ff16156108fb576040517f08c379a00000000000000000000000000000000000000000000000000000000081526004016108f290612019565b60405180910390fd5b34600581905550600160009054906101000a900473ffffffffffffffffffffffffffffffffffffffff1673ffffffffffffffffffffffffffffffffffffffff167f098da306ddd2537f6447ac21569057632d7b220958901a59f69213c81495e6483460405161096a91906120d9565b60405180910390a2565b6109c360008054906101000a900473ffffffffffffffffffffffffffffffffffffffff16600160009054906101000a900473ffffffffffffffffffffffffffffffffffffffff16868686611458565b610a02576040517f08c379a00000000000000000000000000000000000000000000000000000000081526004016109f990612099565b60405180910390fd5b610a51600160009054906101000a900473ffffffffffffffffffffffffffffffffffffffff1660008054906101000a900473ffffffffffffffffffffffffffffffffffffffff16868685611458565b610a90576040517f08c379a0000000000000000000000000000000000000000000000000000000008152600401610a8790611f79565b60405180910390fd5b610a98611188565b50505050565b60065481565b60008054906101000a900473ffffffffffffffffffffffffffffffffffffffff1673ffffffffffffffffffffffffffffffffffffffff163373ffffffffffffffffffffffffffffffffffffffff1614610b32576040517f08c379a0000000000000000000000000000000000000000000000000000000008152600401610b2990611f99565b60405180910390fd5b6001600860006101000a81548160ff021916908315150217905550565b600360019054906101000a900460ff1681565b600860009054906101000a900460ff1681565b600360009054906101000a900460ff1615610bc5576040517f08c379a0000000000000000000000000000000000000000000000000000000008152600401610bbc90611f59565b60405180910390fd5b600554600454610bd591906121a5565b8385610be191906121a5565b1115610c22576040517f08c379a0000000000000000000000000000000000000000000000000000000008152600401610c1990612079565b60405180910390fd5b610c4e60008054906101000a900473ffffffffffffffffffffffffffffffffffffffff168585856114dc565b610c8d576040517f08c379a0000000000000000000000000000000000000000000000000000000008152600401610c8490612099565b60405180910390fd5b610cbb600160009054906101000a900473ffffffffffffffffffffffffffffffffffffffff168585846114dc565b610cfa576040517f08c379a0000000000000000000000000000000000000000000000000000000008152600401610cf190611f79565b60405180910390fd5b83600681905550826007819055503373ffffffffffffffffffffffffffffffffffffffff167f7f0dbf1dcabb4e6139d1c5fcd19f995708cbdb907b080dc4b48c9b8d671dcef3600654600754604051610d549291906120f4565b60405180910390a2610d64611188565b50505050565b600160009054906101000a900473ffffffffffffffffffffffffffffffffffffffff1681565b600360009054906101000a900460ff1681565b60075481565b600360009054906101000a900460ff1615610df9576040517f08c379a0000000000000000000000000000000000000000000000000000000008152600401610df090611f59565b60405180910390fd5b610e2560008054906101000a900473ffffffffffffffffffffffffffffffffffffffff168484846114dc565b610e64576040517f08c379a0000000000000000000000000000000000000000000000000000000008152600401610e5b90612099565b60405180910390fd5b82600681905550816007819055506009841415610ed4573373ffffffffffffffffffffffffffffffffffffffff167f7f0dbf1dcabb4e6139d1c5fcd19f995708cbdb907b080dc4b48c9b8d671dcef3600654600754604051610ec79291906120f4565b60405180910390a2610eed565b60096000815480929190610ee790612269565b91905055505b50505050565b60045481565b600860009054906101000a900460ff168015610f215750600860019054906101000a900460ff165b610f60576040517f08c379a0000000000000000000000000000000000000000000000000000000008152600401610f5790611ff9565b60405180910390fd5b6000600454118015610f7457506000600554115b610fb3576040517f08c379a0000000000000000000000000000000000000000000000000000000008152600401610faa90611f39565b60405180910390fd5b600360019054906101000a900460ff1615611003576040517f08c379a0000000000000000000000000000000000000000000000000000000008152600401610ffa90612019565b60405180910390fd5b81600681905550806007819055506001600360016101000a81548160ff0219169083151502179055505050565b61107f60008054906101000a900473ffffffffffffffffffffffffffffffffffffffff16600160009054906101000a900473ffffffffffffffffffffffffffffffffffffffff16868686611458565b6110be576040517f08c379a00000000000000000000000000000000000000000000000000000000081526004016110b590612099565b60405180910390fd5b61110d600160009054906101000a900473ffffffffffffffffffffffffffffffffffffffff1660008054906101000a900473ffffffffffffffffffffffffffffffffffffffff16868685611458565b61114c576040517f08c379a000000000000000000000000000000000000000000000000000000000815260040161114390611f79565b60405180910390fd5b611154611188565b50505050565b6000600554905090565b60008054906101000a900473ffffffffffffffffffffffffffffffffffffffff1681565b600060065411156112e05760006006549050600060068190555060008060009054906101000a900473ffffffffffffffffffffffffffffffffffffffff1673ffffffffffffffffffffffffffffffffffffffff16826040516111e990611e49565b60006040518083038185875af1925050503d8060008114611226576040519150601f19603f3d011682016040523d82523d6000602084013e61122b565b606091505b505090508061126f576040517f08c379a000000000000000000000000000000000000000000000000000000000815260040161126690611fd9565b60405180910390fd5b60008054906101000a900473ffffffffffffffffffffffffffffffffffffffff1673ffffffffffffffffffffffffffffffffffffffff167feaff4b37086828766ad3268786972c0cd24259d4c87a80f9d3963a3c3d999b0d836040516112d591906120d9565b60405180910390a250505b6000600754111561143b576000600754905060006007819055506000600160009054906101000a900473ffffffffffffffffffffffffffffffffffffffff1673ffffffffffffffffffffffffffffffffffffffff168260405161134290611e49565b60006040518083038185875af1925050503d806000811461137f576040519150601f19603f3d011682016040523d82523d6000602084013e611384565b606091505b50509050806113c8576040517f08c379a00000000000000000000000000000000000000000000000000000000081526004016113bf906120b9565b60405180910390fd5b600160009054906101000a900473ffffffffffffffffffffffffffffffffffffffff1673ffffffffffffffffffffffffffffffffffffffff167feaff4b37086828766ad3268786972c0cd24259d4c87a80f9d3963a3c3d999b0d8360405161143091906120d9565b60405180910390a250505b6001600360006101000a81548160ff021916908315150217905550565b600080868686866040516020016114729493929190611d98565b60405160208183030381529060405280519060200120905060006114958261155d565b90508773ffffffffffffffffffffffffffffffffffffffff166114b8828661158d565b73ffffffffffffffffffffffffffffffffffffffff16149250505095945050505050565b6000803085856040516020016114f493929190611de6565b60405160208183030381529060405280519060200120905060006115178261155d565b90508673ffffffffffffffffffffffffffffffffffffffff1661153a828661158d565b73ffffffffffffffffffffffffffffffffffffffff161492505050949350505050565b6000816040516020016115709190611e23565b604051602081830303815290604052805190602001209050919050565b60008060008061159c856115fc565b925092509250600186848484604051600081526020016040526040516115c59493929190611e94565b6020604051602081039080840390855afa1580156115e7573d6000803e3d6000fd5b50505060206040510351935050505092915050565b60008060006041845114611645576040517f08c379a000000000000000000000000000000000000000000000000000000000815260040161163c90611ef9565b60405180910390fd5b60008060006020870151925060408701519150606087015160001a90508083839550955095505050509193909250565b60006116886116838461214e565b61211d565b9050828152602081018484840111156116a057600080fd5b6116ab84828561225a565b509392505050565b600082601f8301126116c457600080fd5b81356116d4848260208601611675565b91505092915050565b6000813590506116ec81612355565b92915050565b6000806040838503121561170557600080fd5b6000611713858286016116dd565b9250506020611724858286016116dd565b9150509250929050565b6000806000806080858703121561174457600080fd5b6000611752878288016116dd565b9450506020611763878288016116dd565b935050604085013567ffffffffffffffff81111561178057600080fd5b61178c878288016116b3565b925050606085013567ffffffffffffffff8111156117a957600080fd5b6117b5878288016116b3565b91505092959194509250565b600080600080608085870312156117d757600080fd5b60006117e5878288016116dd565b94505060206117f6878288016116dd565b9350506040611807878288016116dd565b925050606085013567ffffffffffffffff81111561182457600080fd5b611830878288016116b3565b91505092959194509250565b611845816121fb565b82525050565b61185c611857826121fb565b6122b2565b82525050565b61186b8161220d565b82525050565b61187a81612219565b82525050565b61189161188c82612219565b6122c4565b82525050565b60006118a4602483612189565b91507f4f6e6c7920426f622063616e20636f6e6669726d20686973207369676e61747560008301527f7265732e000000000000000000000000000000000000000000000000000000006020830152604082019050919050565b600061190a601c8361219a565b91507f19457468657265756d205369676e6564204d6573736167653a0a3332000000006000830152601c82019050919050565b600061194a601983612189565b91507f496e76616c6964207369676e6174757265206c656e6774682e000000000000006000830152602082019050919050565b600061198a601d83612189565b91507f4f6e6c7920416c696365206f7220426f622063616e20726566756e642e0000006000830152602082019050919050565b60006119ca602083612189565b91507f426f74682070617274696573206d757374206465706f7369742066756e64732e6000830152602082019050919050565b6000611a0a601a83612189565b91507f4368616e6e656c20697320616c726561647920636c6f7365642e0000000000006000830152602082019050919050565b6000611a4a601683612189565b91507f496e76616c696420426f62207369676e61747572652e000000000000000000006000830152602082019050919050565b6000611a8a602683612189565b91507f4f6e6c7920416c6963652063616e20636f6e6669726d20686572207369676e6160008301527f74757265732e00000000000000000000000000000000000000000000000000006020830152604082019050919050565b6000611af0601f83612189565b91507f4d757374206465706f7369742061206e6f6e2d7a65726f20616d6f756e742e006000830152602082019050919050565b6000611b30601a83612189565b91507f416c6963652773207769746864726177616c206661696c65642e0000000000006000830152602082019050919050565b6000611b70602583612189565b91507f426f74682070617274696573206d75737420636f6e6669726d207369676e617460008301527f757265732e0000000000000000000000000000000000000000000000000000006020830152604082019050919050565b6000611bd6601c83612189565b91507f46756e64696e6720697320616c726561647920636f6d706c6574652e000000006000830152602082019050919050565b6000611c1660008361217e565b9150600082019050919050565b6000611c30601883612189565b91507f4368616e6e656c20686173206e6f7420657870697265642e00000000000000006000830152602082019050919050565b6000611c70601b83612189565b91507f4f6e6c7920426f622063616e2066756e642068697320706172742e00000000006000830152602082019050919050565b6000611cb0601483612189565b91507f496e76616c69642062616c616e63652073756d2e0000000000000000000000006000830152602082019050919050565b6000611cf0601883612189565b91507f496e76616c696420416c696365207369676e61747572652e00000000000000006000830152602082019050919050565b6000611d30601883612189565b91507f426f622773207769746864726177616c206661696c65642e00000000000000006000830152602082019050919050565b611d6c81612243565b82525050565b611d83611d7e82612243565b6122e0565b82525050565b611d928161224d565b82525050565b6000611da4828761184b565b601482019150611db4828661184b565b601482019150611dc48285611d72565b602082019150611dd48284611d72565b60208201915081905095945050505050565b6000611df2828661184b565b601482019150611e028285611d72565b602082019150611e128284611d72565b602082019150819050949350505050565b6000611e2e826118fd565b9150611e3a8284611880565b60208201915081905092915050565b6000611e5482611c09565b9150819050919050565b6000602082019050611e73600083018461183c565b92915050565b6000602082019050611e8e6000830184611862565b92915050565b6000608082019050611ea96000830187611871565b611eb66020830186611d89565b611ec36040830185611871565b611ed06060830184611871565b95945050505050565b60006020820190508181036000830152611ef281611897565b9050919050565b60006020820190508181036000830152611f128161193d565b9050919050565b60006020820190508181036000830152611f328161197d565b9050919050565b60006020820190508181036000830152611f52816119bd565b9050919050565b60006020820190508181036000830152611f72816119fd565b9050919050565b60006020820190508181036000830152611f9281611a3d565b9050919050565b60006020820190508181036000830152611fb281611a7d565b9050919050565b60006020820190508181036000830152611fd281611ae3565b9050919050565b60006020820190508181036000830152611ff281611b23565b9050919050565b6000602082019050818103600083015261201281611b63565b9050919050565b6000602082019050818103600083015261203281611bc9565b9050919050565b6000602082019050818103600083015261205281611c23565b9050919050565b6000602082019050818103600083015261207281611c63565b9050919050565b6000602082019050818103600083015261209281611ca3565b9050919050565b600060208201905081810360008301526120b281611ce3565b9050919050565b600060208201905081810360008301526120d281611d23565b9050919050565b60006020820190506120ee6000830184611d63565b92915050565b60006040820190506121096000830185611d63565b6121166020830184611d63565b9392505050565b6000604051905081810181811067ffffffffffffffff8211171561214457612143612319565b5b8060405250919050565b600067ffffffffffffffff82111561216957612168612319565b5b601f19601f8301169050602081019050919050565b600081905092915050565b600082825260208201905092915050565b600081905092915050565b60006121b082612243565b91506121bb83612243565b9250827fffffffffffffffffffffffffffffffffffffffffffffffffffffffffffffffff038211156121f0576121ef6122ea565b5b828201905092915050565b600061220682612223565b9050919050565b60008115159050919050565b6000819050919050565b600073ffffffffffffffffffffffffffffffffffffffff82169050919050565b6000819050919050565b600060ff82169050919050565b82818337600083830152505050565b600061227482612243565b91507fffffffffffffffffffffffffffffffffffffffffffffffffffffffffffffffff8214156122a7576122a66122ea565b5b600182019050919050565b60006122bd826122ce565b9050919050565b6000819050919050565b60006122d982612348565b9050919050565b6000819050919050565b7f4e487b7100000000000000000000000000000000000000000000000000000000600052601160045260246000fd5b7f4e487b7100000000000000000000000000000000000000000000000000000000600052604160045260246000fd5b60008160601b9050919050565b61235e81612243565b811461236957600080fd5b5056fea2646970667358221220a59ebcac3be31102bf69c9644c4ddd7281b30ed56eb8191adeaea9aa162861c564736f6c63430008000033",
  "linkReferences": {},
  "deployedLinkReferences": {}
}